:020000040800F2
:1000000010860020A9010008795E0008432B000833
:10001000755E0008230D00087566000800000000EA
:100020000000000000000000000000009D5F0008CC
:10003000270D0008000000007B5E00089F5F00089D
:10004000C3010008C3010008C3010008C301000880
:10005000C3010008C3010008C3010008C301000870
:10006000C3010008C3010008C3010008C301000860
:10007000C3010008C3010008C3010008C301000850
:10008000C3010008C3010008C3010008000000000C
:10009000000000000000000000000000C301000894
:1000A000C3010008C3010008C3010008C301000820
:1000B000C3010008C9600008C3010008C3010008AB
:1000C000C3010008C3010008C3010008C301000800
:1000D000C3010008C3010008C301000800000000BC
:1000E000C3010008C3010008C301000800000000AC
:1000F000000000000000000000000000C301000834
:1001000000000000C3010008C3010008C30100088B
:1001100000000000000000000000000000000000DF
:10012000C3010008C3010008C3010008C30100089F
:10013000C3010008000000000000000000000000F3
:10014000000000000000000000000000C3010008E3
:10015000C3010008C3010008C3010008C30100086F
:10016000C3010008C30100080000000000000000F7
:10017000000000000000000000000000000000007F
:1001800000000000C30100080000000000000000A3
:10019000C3010008DFF80CD000F0E4FB0048004782
:1001A000A1930008108600200648804706480047B3
:1001B000FEE7FEE7FEE7FEE7FEE7FEE7FEE7FEE717
:1001C000FEE7FEE765600008950100082DE9F05F95
:1001D0000546002092469B468846064681464024B6
:1001E0001BE0284641464746224600F028FA53467F
:1001F0005A46C01A914110D311461846224600F0C3
:100200000FFA2D1A67EB01084F4622460120002104
:1002100000F006FA17EB00094E41201EA4F101047C
:10022000DFDC484631462A464346BDE8F09FD2B25D
:1002300001E000F8012B491EFBD270470022F6E7CF
:1002400010B513460A4604461946FFF7F0FF20464C
:1002500010BD2DE9FE4F804681EA0300C00F0C4619
:10026000009021F0004123F00045B8EB0200A941C5
:1002700005D24046214690461C460B46024623F0D6
:100280000040104347D0270DC7F30A00C3F30A51BB
:100290000290401A019040286BDAC3F3130040F437
:1002A000801B0098924620B10023D2EB030A63EB37
:1002B0000B0B01985946C0F14002504600F0B0F9CE
:1002C00006460D4650465946019A00F0C8F910EB13
:1002D00008006141002487EA115284EAE7731A4357
:1002E00040D0009A62B3019A012A4FEA075215DC06
:1002F000001B61EB02014FF0004202EA0752CDE918
:100300000042001C41F5801132462B4600F0FFF9F7
:1003100003B0BDE8F08F40462146F9E7001B61EBD2
:100320000201001C41F5801300185B412018A2F562
:10033000001747EB030140EAD570B6196D4111E093
:100340006D084FEA360645EAC0754FEA0752001BB2
:1003500061EB0201001C41F5801149084FEA3000B1
:100360000019514132462B4603B0BDE8F04F00F072
:10037000BFB90098012240000023D0EB020263EBDA
:10038000E073009821464FEAE074B8EB000061EB9F
:100390000401E9E783F000435BE781F0004158E79F
:1003A0002DE9FE4F81EA030404F0004421F00041EE
:1003B00000944FF0000B23F0004350EA01045ED09C
:1003C00052EA03045BD0C3F30A54C1F30A552C4428
:1003D000A4F2F3340194A0FB0254C1F3130141F4DD
:1003E0008011C3F3130343F4801301FB024400FBA9
:1003F000034E840A970A44EA815447EA8357A4FBD0
:10040000076802958D0A05FB07854FEA932C04FBCC
:100410000C542705029D4FEA065847EA1637B5EBFC
:1004200008056EEB070C870E920E47EA811742EA29
:100430008312A7FB0201B6EB0B0164EB00042B0D4A
:1004400043EA0C335E1844EB1C50DA465146E7FB96
:100450000201C5F313044FEA0B3343EA14534FEA86
:100460000432019C43EA0603A4F10C040294009CAC
:10047000CDE900B400F04BF903B0BDE8F08F0020E7
:100480000146F9E72DE9F04D81EA030404F0004B41
:1004900021F0004514464FF0000A23F0004150EAD5
:1004A000050220D054EA01021DD0C5F30A570246C6
:1004B000C5F31303C1F31300C1F30A5640F48015CA
:1004C00043F48013A7EB0608101BD64608F2FD384C
:1004D00073EB050002D308F1010801E092185B41BB
:1004E000B8F1000F03DA00200146BDE8F08D0020CE
:1004F0004FF48011064684460EE0171B73EB050788
:1005000005D3121B63EB050306434CEA010C4908B3
:100510004FEA300092185B4150EA0107EDD152EAF0
:10052000030012D082EA040083EA0501084305D0E3
:10053000101BAB4106D20122002306E000224FF03F
:10054000004302E06FF0010253101AEB06004CEB7F
:10055000085110EB0A0041EB0B01BDE8F04D00F033
:10056000C7B80EB5C10F80EAE0700844CA07002181
:1005700040F233438DE80E000A460B4600F0C7F800
:1005800003B000BD70B5C1F30A5201F0004500246C
:10059000C1F3130140F2FF3341F480119A4201DAB2
:1005A000002070BD40F233439A42A2F2334203DC92
:1005B000524200F044F800E090402C43F1D0404219
:1005C00070BD00F0004230F000400AD0C10D01F5CE
:1005D0006071C0F3160042EA0151C208400711439E
:1005E000704700200146704701F0004330B421F00D
:1005F000004150EA010206D00A0DA2F56072C1F373
:100600001301002A02DC30BC00207047440F44EA8A
:10061000C104C100E01830BC00EBC25000F031B89A
:10062000202A04DB203A00FA02F1002070479140B2
:10063000C2F1200320FA03F3194390407047202AA7
:1006400004DB203A21FA02F00021704721FA02F37C
:10065000D040C2F120029140084319467047202A39
:1006600006DBCB17203A41FA02F043EAE07306E0DA
:1006700041FA02F3D040C2F12002914008431946EA
:1006800070470029A8BF7047401C490008BF20F0F0
:100690000100704710B4B0FA80FC00FA0CF050EA88
:1006A000010404BF10BC704749B1CCF1200421FA09
:1006B00004F411FA0CF118BF012121430843A3EB04
:1006C0000C01CB1D4FEA00614FEA102042BF002011
:1006D00010BC704700EBC35010440029A4BF10BCED
:1006E0007047401C490008BF20F0010010BC704753
:1006F00010B5141E73F1000408DA401C41F100012A
:1007000092185B411A4301D120F0010010BD2DE980
:10071000F04D92469B4611B1B1FA81F202E0B0FA77
:1007200080F220329046FFF77BFF04460F4640EAF6
:100730000A0041EA0B0153465A46084313D01146BA
:1007400053EA010019D0C8F140025046FFF777FF85
:1007500005460E46504659464246FFF761FF08439C
:1007600005D0012004E020463946BDE8F08D002088
:10077000054346EAE0762C4337430A986305E40ACA
:10078000A0EB08000022FD0A44EA47540A3002D5D3
:1007900000200146E9E7010510196941DDE9084536
:1007A00000196941BDE8F04DA2E770B521F00043A2
:1007B00003430CD0C1F30A550024D5EB040564EBC8
:1007C0000403D617AD1AB34102DB0020014670BD09
:1007D000201841EB025170BD2DE9F04D00231A465F
:1007E0001B1A8A4103DB00200146BDE8F08DC1F3EE
:1007F0000A52C1F3130141F480154FF0000BD107E9
:1008000002D100186D41521E0027044640F2FF112C
:10081000384601EB620A3E468046024600204FF40D
:100820008011FFF70CFFC2197141BB1846EB0100A4
:10083000B4EB030C75EB000C04D3E41A65EB000574
:1008400017460E46241908F101006D4180463428F0
:10085000E3DDF91946EB0600091BA84103D24FF06E
:10086000FF32134601E0002213461BEB070046EB64
:100870000A51BDE8F04DFFF73BBF00002DE9F04104
:10088000054621F000400C46284309D0C4F30A5025
:1008900040F23341884205DD28462146BDE8F0811B
:1008A0002846FBE740F2FE31884210DC0CDB4FEAC1
:1008B000043040EA155050EA053105D0104804F0E4
:1008C000004101430020E9E700200146E6E7A0F2ED
:1008D00033404642C6F1400228462146FFF7A0FEBB
:1008E00007468846284621463246FFF7A8FE43467B
:1008F0003A46FFF7FDFE3246BDE8F041FFF790BEF5
:100900000000F03F30B5041E71F1000404DB4FF02D
:100910000044404264EB0101141E73F1000405DB46
:100920001C464FF00043524263EB04038B4208BF66
:10093000824230BD30B5041E71F1000404DB4FF07B
:100940000044404264EB0101141E73F1000405DB16
:100950001C464FF00043524263EB0403994208BF28
:10096000904230BD064C074D06E0E06840F00103C0
:1009700094E8070098471034AC42F6D3FFF70EFC1A
:10098000C8960008E896000870B58C1810F8015B4E
:1009900015F0070301D110F8013B2A1106D110F818
:1009A000012B03E010F8016B01F8016B5B1EF9D11C
:1009B0002B0705D40023521E0DD401F8013BFAE7A2
:1009C00010F8013BCB1A921C03E013F8015B01F80D
:1009D000015B521EF9D5A142D8D3002070BD0000A2
:1009E00010B50446024A0221204602F00DFC10BD5B
:1009F0001004002070B504460025012C01D9AD1E5D
:100A000013E00B4850F824000A4901EB84110860F8
:100A1000084901EB841005F0F5FD064901EB84104F
:100A200005F04EF808B16FF00305284670BD0000D0
:100A3000780000208C04002010B500F053FB10BD9E
:100A400010B500240948006870B108480068401ECD
:100A50000649086040B9064802F076F8044800F0FC
:100A60006DFB08B16FF00704204610BD1000002098
:100A7000BC03002010B50024114812490860124838
:100A800001680068401C104A1060B9B90D4800F0B8
:100A900076FB98B90B4802F069F87CB9094804F074
:100AA00003FE10B16FF0070408E00021054800F0D4
:100AB0001FFB10B16FF0070400E00024204610BDBA
:100AC00000540040BC030020100000202DE9FE432C
:100AD00004460D4616461F464FF000084FF480505E
:100AE00001232A462146CDE900670290084800F01C
:100AF00027FC48B1064800F03FFB042802D16FF004
:100B0000650801E06FF003084046BDE8FE83000081
:100B1000BC0300202DE9FE4304460D4616461F4641
:100B20004FF000084FF4805001232A462146CDE9BA
:100B300000670290084800F07DFD48B1064800F0CB
:100B40001BFB042802D16FF0650801E06FF0030879
:100B50004046BDE8FE830000BC03002010B586B00F
:100B6000044600BF002000901348006840F00100D8
:100B7000114908600846006800F00100009000BFBD
:100B800000BF0E4830F8140001900120029003903D
:100B9000022004900A4951F8240001A900F0AAF9A2
:100BA000064A32F81410064A52F82400002200F0D7
:100BB00093FA002006B010BD303802403C94000883
:100BC0006400002010B50446054A32F81410054AA6
:100BD00052F82400002200F07FFA002010BD00002F
:100BE0003C9400086400002010B50446054A32F821
:100BF0001410054A52F82400012200F06DFA00207A
:100C000010BD00003C940008640000200121014A4E
:100C1000117070470800002010B50446064A32F8EB
:100C20001410064A52F8240000F04EFA08B90120C8
:100C300010BD0020FCE700003E9400086800002082
:100C400070B586B004460D46002600BF0020009017
:100C50002848006840F004002649086008460068FB
:100C600000F00400009000BF00BF234830F81400DB
:100C7000019002200390049045B9002002901F4982
:100C800051F8240001A900F035F930E01C48029029
:100C90001A4951F8240001A900F02CF9194A52F818
:100CA000241004EB4402184B03EB820000F074F8AC
:100CB00010B16FF003061AE0144951F8242004EB38
:100CC0004401114B03EB8100002100F06CF810B1DE
:100CD0006FF003060BE00E4A52F824100D4A10572D
:100CE000002200F0E3FD0B49085700F0CFFD30462D
:100CF00006B070BD303802403E9400086800002005
:100D0000000011104C9400086C000020449400086E
:100D1000489400084094000810B50020FFF776FFC3
:100D200010BD00BFFEE770477047000010B50446D5
:100D3000024A0121204602F067FA10BD1C0400207F
:100D400010B504460CB9012010BD607920B900200F
:100D50002071204600F006F80220607101206071C9
:100D60000020F1E708B50A4A016891420FD100BF9F
:100D7000002100910749096841F48051054A11603A
:100D80001146096801F48051009100BF00BF08BD01
:100D9000003002403038024002460AB90120704754
:100DA00011600020FBE710B50346002009B95A6026
:100DB00001E0012000BF00BF10BD0000F0B50C46EF
:100DC000002500220023002181E0012606FA01F51A
:100DD00004EA0502AA4279D13F4E8F0856F827301F
:100DE0008E07370F0F26BE4033403C4EB04201D134
:100DF000002614E03A4EB04201D101260FE0394EF0
:100E0000B04201D102260AE0374EB04201D103269A
:100E100005E0364EB04201D1042600E007268F07D8
:100E20003F0FBE409E4222D18E07370F0F2606FA93
:100E300007F3294E8F0856F827609E43264F4FEA46
:100E4000910C47F82C602A4E36689643284F3E6036
:100E50003E1D366896433F1D3E603E1D36689643F4
:100E60003F1D3E603E1D366896433F1D3E6006684E
:100E70004FEA410C032707FA0CF7BE430660CF0880
:100E800000F1200656F827604F074FEAD76C0F276E
:100E900007FA0CF7BE434FEAD10C00F1200747F8E0
:100EA0002C6086684FEA410C032707FA0CF7BE4313
:100EB0008660466801278F40BE434660C6684FEA99
:100EC000410C032707FA0CF7BE43C660491C1029E2
:100ED000FFF47BAFF0BD0000083801400000024085
:100EE0000004024000080240000C024000100240D2
:100EF000003C0140F8B503460A46002500240020C6
:100F00000021CDE0012606FA01F5166806EA05047F
:100F1000AC4273D15668022E02D05668122E13D1FD
:100F2000CF0803F1200656F827004E07F70E0F26CC
:100F3000BE40B0434F07FF0E1669BE403043CF0896
:100F400003F1200646F8270018684F000326BE402C
:100F5000B043167906F003064F00BE4030431860D8
:100F60005668012E08D05668022E05D05668112EFC
:100F700002D05668122E13D198684F000326BE4047
:100F8000B0434F00D668BE40304398605868012691
:100F90008E40B0431679C6F300168E403043586039
:100FA000D8684F000326BE40B0434F009668BE404D
:100FB0003043D860566806F08056B6F1805F6ED137
:100FC00000BF00260096384E366846F48046364FFD
:100FD0003E603E46366806F48046009600BF00BF7D
:100FE000324E8F0856F827008E07370F0F26BE4067
:100FF000B0432F4EB34202D1002615E04FE02D4EF4
:10100000B34201D101260FE02B4EB34201D102269B
:101010000AE02A4EB34201D1032605E0284EB3422E
:1010200001D1042600E007268F073F0FBE40304362
:101030001E4E8F0846F82700224E3068A04356689F
:1010400006F48036B6F5803F00D120431D4E306057
:10105000361D3068A043566806F40036B6F5003FEA
:1010600000D12043174E361D3060361D3068A04336
:10107000566806F48016B6F5801F00D12043114E45
:1010800008363060361D3068A043566806F40016F6
:10109000B6F5001F00D120430A4E0C363060491CC3
:1010A0001029FFF42FAFF8BD443802400838014042
:1010B000000002400004024000080240000C024010
:1010C00000100240003C0140024613690B400BB186
:1010D000012000E0002070470AB1816101E00B04AB
:1010E000836170470148006870470000800000205D
:1010F000024692F83D0020281ED1242082F83D00AF
:101100001068006820F00100136818601068406AD9
:1011100020F01000136858621068406A0843136892
:1011200058621068006840F00100136818602020C1
:1011300082F83D00002070470220FCE710B504460D
:101140000CB9012010BD242084F83D0020680068FF
:1011500020F0010021680860204600F01DFB0020FF
:10116000206484F83D00206384F83E0000BF84F8CA
:101170003C0000BF00BFE5E70146086C7047014630
:1011800091F83D007047000070B504460CB901208D
:1011900070BD94F83D0028B9002084F83C0020463A
:1011A00000F0FBFA242084F83D002068006820F05D
:1011B00001002168086000F091FC05465C49606808
:1011C000884206D85B48854201D2012007E0002012
:1011D00005E05948854201D2012000E000200128A5
:1011E00000D1D5E75548B5FBF0F62068406820F0FF
:1011F0003F003043216848604D496068884201D80B
:10120000701C07E04FF4967070434FF47A71B0FB96
:10121000F1F0401C2168096A21F03F010843216870
:10122000086243496068884214D8681E61684900B2
:10123000B0FBF1F0401CC0F30B00042801D20420E5
:101240003DE0681E61684900B0FBF1F0401CC0F34E
:101250000B0034E0A06838B9681E616801EB4101F9
:10126000B0FBF1F0401C0AE0681E616801EBC102AE
:1012700002EB0111B0FBF1F0401C40F48040C0F3E0
:101280000B0008B901201AE0A06848B9681E61681F
:1012900001EB4101B0FBF1F0401CC0F30B000CE08E
:1012A000681E616801EBC10202EB0111B0FBF1F0B5
:1012B000401CC0F30B0040F4804040F40040216823
:1012C000C9694CF6FF72914308432168C861D4E9AB
:1012D000070108432168096821F0C001084321681B
:1012E0000860D4E9031008432168896848F2FF3296
:1012F0009143084321688860D4E9050108432168C7
:10130000C96821F0FF0108432168C86020680068AF
:1013100040F001002168086000202064202084F84B
:101320003D000020206384F83E0000BF30E700004D
:10133000A086010080841E0000093D0040420F008D
:101340002DE9FC5F04460F4690469946DDE90CAB5B
:101350000E9EFFF7C7FE054694F83D00202870D189
:1013600019230122B0492046009501F089FD10B1F2
:101370000220BDE8FC9F00BF94F83C00012801D189
:101380000220F6E7012084F83C0000BF20680068D6
:1013900000F0010028B92068006840F001002168D1
:1013A00008602068006820F400602168086022203E
:1013B00084F83D00402084F83E0000202064C4F8FA
:1013C00024A0A4F82AB0608D20859848E0624B469E
:1013D000424639462046CDE9006501F021FC08B1BE
:1013E0000120C6E7208D88B900BF00200190206849
:1013F0004069019020688069019000BF00BF2068AB
:10140000006840F400702168086040E0208D0128E9
:1014100018D12068006820F480602168086000BF4F
:101420000020019020684069019020688069019047
:1014300000BF00BF2068006840F4007021680860A9
:1014400025E0EFE0208D022816D12068006820F406
:101450008060216808602068006840F400602168AE
:10146000086000BF0020019020684069019020685A
:101470008069019000BF0AE000BF00200190206851
:101480004069019020688069019000BF00BFBAE008
:10149000208D03287ED8208D012815D12A4631467B
:1014A000204601F092FD08B1012062E72068006942
:1014B000616A0870606A401C6062208D401E208551
:1014C000608D401E60859EE0208D02282AD1334623
:1014D000002257492046009501F0D2FC08B10120B6
:1014E00047E72068006840F40070216808602068C1
:1014F0000069616A0870606A401C6062208D401E4D
:101500002085608D401E608520680069616A0870D2
:10151000606A401C6062208D401E2085608D401EE8
:10152000608570E03346002241492046009501F075
:10153000A7FC08B101201CE72068006820F4806047
:101540002168086020680069616A0870606A401C50
:101550006062208D401E2085608D401E6085334670
:10156000002233492046009501F08AFC08B1012091
:10157000FFE62068006840F4007021680860206879
:101580000069616A0870606A401C6062208D401EBC
:10159000208500E010E0608D401E608520680069B5
:1015A000616A0870606A401C6062208D401E208560
:1015B000608D401E608526E02A463146204601F0B7
:1015C00004FD08B10120D4E620680069616A087052
:1015D000606A401C6062208D401E2085608D401E28
:1015E000608520684069C0F3800060B120680069B0
:1015F000616A0870606A401C6062208D401E208510
:10160000608D401E6085208D00287FF441AF202032
:1016100084F83D00002084F83E0000BF84F83C00C0
:1016200000BFA6E60220A4E6020010000000FFFFB3
:10163000040001002DE9FC5F04460F4690469946E0
:10164000DDE90CAB0E9EFFF74DFD054694F83D001D
:1016500020287DD1192301224D492046009501F013
:101660000FFC10B10220BDE8FC9F00BF94F83C00C5
:10167000012801D10220F6E7012084F83C0000BFD8
:101680002068006800F0010028B92068006840F078
:101690000100216808602068006820F4006021686B
:1016A0000860212084F83D00402084F83E0000209E
:1016B0002064C4F824A0A4F82AB0608D20853548A1
:1016C000E0624B46424639462046CDE9006501F0CE
:1016D00043FB08B10120C6E731E02A4631462046E7
:1016E00001F0B3FC50B1206C042805D120680068DB
:1016F00040F40070216808600120B4E7606A007857
:1017000021680861606A401C6062208D401E20854F
:10171000608D401E608520684069C0F3800070B114
:10172000208D60B1606A007821680861606A401CA1
:101730006062208D401E2085608D401E6085208D5A
:101740000028CAD12A463146204601F06BFB00E052
:101750001CE050B1206C042805D12068006840F4DA
:1017600000702168086001207DE72068006840F46F
:10177000007021680860202084F83D00002084F873
:101780003E0000BF84F83C0000BF6CE702206AE71F
:10179000020010000000FFFF704770470348006818
:1017A0000349097808440149086070478000002017
:1017B0008800002010B50D48006840F400700B4907
:1017C00008600846006840F48060086008460068C9
:1017D00040F480700860032000F0A6F8002000F0BC
:1017E00007F800F02BF8002010BD0000003C02407C
:1017F00070B504460E4800784FF47A71B1FBF0F0F2
:101800000C490968B1FBF0F5284600F003FC08B16B
:10181000012070BD102C07D200222146501E00F07E
:1018200045F80548046001E00120F2E70020F0E7F8
:10183000880000208C0000208400002008B500BF34
:10184000002000901048006840F480400E49086075
:101850000846006800F48040009000BF00BF00BF51
:1018600000200090081F006840F08050091F0860A9
:101870000846006800F08050009000BF00BF0720BD
:1018800000F052F808BD0000443802400146084606
:10189000002809DB00F01F0301229A4043099B0046
:1018A00003F1E023C3F8002100BF70472DE9F05F8A
:1018B00080460D461646002704F0AEFF074639461F
:1018C0002A46334601F00700C0F1070ABAF1040FB7
:1018D00002D94FF0040A01E0C0F1070AD14600F135
:1018E000040ABAF1070F02D24FF0000A01E0A0F19A
:1018F000030AD4464FF0010A0AFA09FAAAF1010ACA
:101900000AEA020A0AFA0CFA4FF0010B0BFA0CFB76
:10191000ABF1010B0BEA030B4AEA0B0421464046EC
:1019200004F082FFBDE8F09F00BF00F00702064B05
:1019300019684FF6FF031940044B0B4343EA022199
:10194000014B196000BF70470CED00E00000FA0584
:1019500070B504460D460CB9012070BD58480068AA
:1019600000F00F00A84209D255490D7008460068E2
:1019700000F00F00A84201D00120EEE7207800F02F
:10198000020002281DD1207800F00400042805D1AF
:101990004C48006840F4E0504A490860207800F064
:1019A0000800082805D14748006840F460404549D0
:1019B00008604448006820F0F000A16808434149ED
:1019C0000860207800F00100A8B36068012807D102
:1019D0003C4808380068C0F34040B8B90120BCE773
:1019E0006068022802D06068032807D135480838AB
:1019F0000068C0F3406048B90120AEE731480838BC
:101A00000068C0F3400008B90120A6E72D4800682F
:101A100020F00300616808432A490860FFF762FB71
:101A2000064609E0FFF75EFB801B41F288318842E1
:101A300002D9032091E707E02248006800F00C007B
:101A40006168B0EB810FEDD11D48006800F00F0018
:101A5000A84209D91A490D700846006800F00F0025
:101A6000A84201D0012078E7207800F00400042883
:101A700007D11448006820F4E050E1680843114998
:101A80000860207800F00800082808D10D48006898
:101A900020F46040216940EAC1000A49086000F072
:101AA0003DF808490968C1F30311074A515CC84071
:101AB000064908600020FFF79BFE00204DE700006C
:101AC000003C024008380240509400088C0000207E
:101AD00001480068704700008C00002000B5FFF747
:101AE000F7FF04490968C1F38221034A515CC840E9
:101AF00000BD0000083802406094000800B5FFF700
:101B0000E7FF04490968C1F34231034A515CC84008
:101B100000BD000008380240609400082DE9F0473D
:101B2000002400250026A1462548006800F00C008E
:101B300020B1042805D008283AD105E0DFF88490C8
:101B400039E0DFF8849036E01D48001F006800F09F
:101B50003F041B48001F006800F4800078B11A4859
:101B60001749091F0968C1F38811A0FB01700146DC
:101B7000224600233846FEF729FB05460EE01148B1
:101B80000F49091F0968C1F38811A0FB01700146C4
:101B9000224600233846FEF719FB05460848001F79
:101BA0000068C0F30140401C4600B5FBF6F902E0B6
:101BB000DFF8109000BF00BF4846BDE8F087000086
:101BC000083802400024F40000127A00F8B50446F8
:101BD0000CB90120F8BD207800F00100002874D075
:101BE000F948006800F00C0004280DD0F6480068A1
:101BF00000F00C00082813D1F348001F006800F41F
:101C00008000B0F5800F0BD1EF4808380068C0F3B2
:101C10004040002859D06068002856D10120D9E7FB
:101C200000BF6068B0F5803F08D1E7480838006819
:101C300040F48030E449083908601EE06068B0F57F
:101C4000A02F0DD1E0480838006840F48020DE491C
:101C5000083908600846006840F4803008600CE0ED
:101C6000D9480838006820F48030D749083908601E
:101C70000846006820F48020086000BF606890B1CA
:101C8000FFF730FA054606E0FFF72CFA401B642800
:101C900001D903209EE7CC4808380068C0F34040D3
:101CA0000028F1D011E0FFF71DFA054606E0FFF726
:101CB00019FA401B642801D903208BE7C248083871
:101CC0000068C0F340400028F1D1207800F0020005
:101CD00002285FD1BC48006800F00C0058B1BA4837
:101CE000006800F00C0008281CD1B748001F0068ED
:101CF00000F48000B0B9B44808380068C0F3400070
:101D000020B1E068012801D0012063E7AE4808381F
:101D1000006820F0F800216940EAC100AA490839AA
:101D2000086037E0E06800B30120A8490860FFF7C9
:101D3000D9F9054606E0FFF7D5F9401B022801D97D
:101D4000032047E7A04808380068C0F34000002897
:101D5000F1D09D480838006820F0F800216940EA79
:101D6000C10099490839086014E0002097490860CB
:101D7000FFF7B8F9054606E0FFF7B4F9401B022863
:101D800001D9032026E7904808380068C0F34000D6
:101D90000028F1D1207800F0080008282CD16069D3
:101DA000A8B101208A490860FFF79CF9054606E0C2
:101DB000FFF798F9401B022801D903200AE782485F
:101DC0006C300068C0F340000028F1D014E000201F
:101DD0007F490860FFF786F9054606E0FFF782F9BC
:101DE000401B022801D90320F4E677486C300068D4
:101DF000C0F340000028F1D1207800F0040004284E
:101E000070D1002670483830006800F0805090B9DA
:101E100000BF002000906C483830006840F08050CF
:101E20006949383108600846006800F08050009029
:101E300000BF00BF01266748006800F48070B0B999
:101E40006448006840F4807062490860FFF74AF90E
:101E5000054606E0FFF746F9401B022801D903209A
:101E6000B8E65C48006800F480700028F2D000BF3B
:101E7000A068012808D154486830006840F001008B
:101E80005149683108601DE0A06805280DD14E4811
:101E90006830006840F004004B496831086008462B
:101EA000006840F0010008600CE0474868300068B6
:101EB00020F001004449683108600846006820F0BD
:101EC0000400086000BFA068A8B1FFF70BF9054641
:101ED00009E0FFF707F9401B41F28831884202D937
:101EE000032077E626E0384868300068C0F34000F9
:101EF0000028EED013E0FFF7F5F8054608E0FFF7FD
:101F0000F1F8401B41F28831884201D9032061E693
:101F10002D4868300068C0F340000028EFD1012E42
:101F200007D129483830006820F0805026493831E0
:101F3000086000BFA069B8B32348006800F00C0037
:101F400008285ED0A069022846D100201F490866F3
:101F5000FFF7C8F8054606E0FFF7C4F8401B022863
:101F600001D9032036E6184808380068C0F34060FD
:101F70000028F1D1D4E907010843616A40EA8111E0
:101F80000122A06AC2EB500041EA00412C20005D12
:101F900041EA00600C49091F086001200B490866EE
:101FA000FFF7A0F8054607E02DE0FFF79BF8401B80
:101FB000022801D903200DE6034808380068C0F361
:101FC00040600028F1D01EE008380240000047427F
:101FD000800E47420070004000200C490866FFF761
:101FE00081F8054606E0FFF77DF8401B022801D97D
:101FF0000320EFE506480068C0F340600028F2D1F6
:1020000001E00120E6E50020E4E500000000474291
:102010000038024070B504462546681EB0F1807F46
:1020200001D301200FE0681E4FF0E02148610F212D
:102030004FF0FF3004F0F8FB00204FF0E021886102
:1020400007200861002070BD7047704710B5024638
:1020500000BF92F83C00012801D1022010BD0120F0
:1020600082F83C0000BF022082F83D0010684368FF
:102070001068846823F070030868034324F0800428
:10208000486804431068436010688460012082F847
:102090003D0000BF002082F83C0000BF00BFDDE72C
:1020A00010B504460CB9012010BD94F83D0028B9C4
:1020B000002084F83C00204600F00CF8022084F850
:1020C0003D00211D206804F007F8012084F83D0040
:1020D0000020E9E738B504460E492068884217D148
:1020E00000BF002000900C48006840F002000A4940
:1020F00008600846006800F00200009000BF00BFC2
:10210000002211461D20FFF7D1FB1D20FFF7BEFB6B
:1021100038BD000000040040403802400146086815
:10212000C06840F001000B68D8600868806800F063
:102130000702062A05D00868006840F001000B6815
:102140001860002070472DE9F04104460D4600BF9D
:1021500094F83C00012802D10220BDE8F081012062
:1021600084F83C0000BF022084F83D0020688668A7
:1021700026F0770626F47F46206886602868502877
:1021800033D00CDC202850D004DC00284BD01028A1
:1021900051D149E0302849D040284CD139E060285D
:1021A0002DD0702807D0B0F5805F03D0B0F5005F68
:1021B00041D10DE040E0D5E902136A68206803F0E0
:1021C000DDFF2068866846F077062068866033E089
:1021D000D5E902136A68206803F0D0FF20688068A0
:1021E00040F480402168886026E0EA6869682068D9
:1021F00003F0D8FF5021206803F0CBFF1CE0EA6811
:102200006968206803F0E1FF6021206803F0C1FFE6
:1022100012E0EA686968206803F0C4FF4021206882
:1022200003F0B7FF08E000BF00BF00BF29682068C7
:1022300003F0AFFF00E000BF00BF012084F83D00C5
:1022400000BF002084F83C0000BF00BF85E7704756
:1022500010B5044620680069C0F34000D8B120687A
:10226000C068C0F34000B0B16FF00200216808619F
:10227000012020772068806900F0030018B1204613
:10228000FFF7E5FF05E0204600F0ADF8204600F03E
:10229000ABF80020207720680069C0F38000D8B137
:1022A0002068C068C0F38000B0B16FF004002168FE
:1022B0000861022020772068806900F4407018B11E
:1022C0002046FFF7C4FF05E0204600F08CF82046CA
:1022D00000F08AF80020207720680069C0F3C00071
:1022E000D8B12068C068C0F3C000B0B16FF008007A
:1022F00021680861042020772068C06900F003008D
:1023000018B12046FFF7A3FF05E0204600F06BF868
:10231000204600F069F80020207720680069C0F3AB
:102320000010D8B12068C068C0F30010B0B16FF0E1
:10233000100021680861082020772068C06900F437
:10234000407018B12046FFF782FF05E0204600F0FC
:102350004AF8204600F048F80020207720680069FD
:1023600000F0010058B12068C06800F0010030B1F1
:102370006FF0010021680861204600F037F82068FE
:102380000069C0F3C01058B12068C068C0F3C01025
:1023900030B16FF08000216808612046FFF754FEDD
:1023A00020680069C0F3801058B12068C068C0F38D
:1023B000801030B16FF0400021680861204600F0C5
:1023C00021F820680069C0F3401058B12068C06847
:1023D000C0F3401030B16FF0200021680861204642
:1023E000FFF733FE10BD70477047000000B502468E
:1023F00003491068884201D103F0A4F800BD000031
:1024000000040040704710B504460CB9012010BD0F
:10241000A06900B100E000BF94F8390028B900209D
:1024200084F83800204600F027F8242084F839008A
:102430002068C06820F400502168C860204603F07E
:10244000F7FE2068006920F4904021680861206848
:10245000406920F02A00216848612068C06840F483
:1024600000502168C8600020E063202084F8390013
:1024700084F83A000020CAE770472DE9F843044683
:102480000D4616461F464FF0000994F839002028E3
:102490005CD105B116B90120BDE8F88300BF94F8FE
:1024A0003800012801D10220F6E7012084F8380025
:1024B00000BF0020E063212084F83900FEF712FEFF
:1024C0008146A684E6842BE0E08C401EE084A06870
:1024D000B0F5805F16D14B46002280212046009740
:1024E00004F05AF808B10320D6E7A846B8F800006F
:1024F000C0F3080021684860206908B9AD1C0FE0EE
:102500006D1C0DE04B46002280212046009704F010
:1025100043F808B10320BFE715F8010B21684860B4
:10252000E08C0028D0D14B46002240212046009765
:1025300004F032F808B10320AEE7202084F8390017
:1025400000BF002084F8380000BFA5E70220A3E701
:1025500030B58DB00446002500200890BF208DF8CE
:102560002400394806903948079039480B9039487B
:102570000A9039480C9006A9384800F0EBF908B1E8
:10258000ED1F5DE005A9354800F0D6F910B16FF0F8
:10259000060555E09DF81400BC2802D06FF0060532
:1025A0004EE001A92D4800F085F89DF804009DF843
:1025B000051040EA41009DF8061040EA81002849D4
:1025C0000860264827490860274828490860BDB99F
:1025D00004F00100A0B19DF80400012810D12448A6
:1025E00024494968244A42F821001E4A10681F4ABB
:1025F00012681168884710B16FF0040500E00025EB
:10260000C5B904F00400042814D19DF8060001287F
:1026100010D11A4817490969174A42F82100114A8E
:102620001068124A12681168884710B16FF00405EB
:1026300000E0002525B904F00200022800D1C51FE2
:1026400028460DB030BD0000750A0008410A000898
:10265000CD0A0008150B0008390A0008B40500204F
:10266000F8010020D401002050010020F0010020DA
:1026700074010020DC0100209C0500206001002086
:1026800010B5044694F8280001280DD1204600F02A
:102690005BF810B14FF0FF3010BD204600F0A7F9F5
:1026A00010B14FF0FF30F7E7002084F8280000BF9A
:1026B000F2E70000024601208870002048700120E7
:1026C00008700020C870B2EE090A81ED010AB2EE6E
:1026D000090A81ED020A9FED020A81ED030A7047A3
:1026E00000000000F8B505460C460026694605F1D5
:1026F0001C0006F042F808B1701EF8BD9DF80000FD
:1027000030B1012809D002280CD0032814D10EE0E2
:102710009FED0C0A84ED000A11E0B7EE000A84ED8B
:10272000000A0CE0B1EE0C0A84ED000A07E0B2EEFC
:10273000090A84ED000A02E04FF0FF3600BF00BF37
:102740003046DAE70000000010B5044694F829008E
:1027500008B9002010BD94F82A0040B9002104F106
:102760001C0006F099F810B14FF0FF30F2E700209E
:1027700084F8290000BFEDE710B5044694F829005D
:10278000012801D1002010BD94F82A0040B9012190
:1027900004F11C0006F080F810B14FF0FF30F2E7B2
:1027A000012084F829000020EDE7000030B587B053
:1027B00004460D4605A904F11C0006F02BF818B1DB
:1027C0004FF0FF3007B030BDBDF9140000EE100A25
:1027D000B8EEC00A8DED010A05A904F11C0006F04F
:1027E00031F810B14FF0FF30ECE79DF8140000EE27
:1027F000100AB8EE400A8DED020A05A904F11C008A
:1028000006F014F810B14FF0FF30DBE7BDF914000B
:1028100000EE100AB8EEC00A8DED030A05A904F116
:102820001C0006F01EF810B14FF0FF30CAE79DF80B
:10283000140000EE100AB8EE400A8DED040A0020E4
:10284000069006A904F11C0006F01AF810B14FF02A
:10285000FF30B7E7BDF9180000EE900AF8EEE00A85
:10286000B0EE600A01A802F073FE85ED000A95ED56
:10287000000AB5EEC00AF1EE10FA03D29FED090A84
:1028800085ED000A95ED000ADFED070AB4EEE00AD7
:10289000F1EE10FA03DD9FED040A85ED000A002039
:1028A00090E70000000000000000C84270B5044638
:1028B0000D4629462046FFF715FF70BD10B52DEDDA
:1028C000028B0446B0EE408AB0EE480A204600F083
:1028D00067F8BDEC028B10BD10B5044694F82800D3
:1028E00030B9204600F009F810B14FF0FF3010BDAC
:1028F000012084F828000020F9E710B504460021E3
:1029000004F11C0005F0C8FF10B14FF0FF3010BDFE
:10291000012104F11C0005F017FF10B14FF0FF304A
:10292000F5E7B7EE000A204600F03AF810B14FF094
:10293000FF30ECE70020EAE770B504460D46294673
:1029400004F11C0005F05AFF10B14FF0FF3070BDCC
:102950000020FCE770B504460D4614B94FF0FF3077
:1029600019E02968216069686160A968A160297B14
:1029700021732969216169696161A969A161064AB7
:1029800022620649E1616462216811B121688847C9
:1029900001E04FF0FF3070BD0D5F000809670008CF
:1029A00070B52DED028B0446B0EE408AB7EE000AFA
:1029B000B4EEC08AF1EE10FA01D8012009E0B1EEC0
:1029C0000C0AB4EEC08AF1EE10FA01D8022000E041
:1029D00003200546294604F11C0005F0F6FE20B14F
:1029E0004FF0FF30BDEC028B70BD0020FAE710B550
:1029F000044694F82A0008B9002010BD94F8290074
:102A000040B9002104F11C0005F046FF10B14FF061
:102A1000FF30F2E7002084F82A0000BFEDE710B590
:102A2000044694F82A00012801D1002010BD94F832
:102A3000290040B9012104F11C0005F02DFF10B15F
:102A40004FF0FF30F2E7012084F82A000020EDE784
:102A500070B504460D4629462046FFF743FE70BD7B
:102A600030B587B004460D4605A904F11C0005F0F9
:102A70003CFF18B14FF0FF3007B030BDBDF9140076
:102A800000EE100AB8EEC00A8DED010A05A904F1A6
:102A90001C0005F042FF10B14FF0FF30ECE79DF84D
:102AA000140000EE100AB8EE400A8DED020A05A9E6
:102AB00004F11C0005F025FF10B14FF0FF30DBE7FB
:102AC000BDF9140000EE100AB8EEC00A8DED030A3D
:102AD00005A904F11C0005F040FF10B14FF0FF30D4
:102AE000CAE79DF8140000EE100AB8EE400A8DED1A
:102AF000040A0020069006A904F11C0005F04DFF11
:102B000010B14FF0FF30B7E7BDF9180000EE900AA2
:102B1000F8EEE00AB0EE600A01A802F019FD85EDBA
:102B2000000A0020A8E710B52DED028B0446B0EE98
:102B3000408AB0EE480A2046FFF732FFBDEC028B18
:102B400010BD00BFFEE7000010B504460548006850
:102B500020F40010034908604FF440710248FEF76A
:102B60002DF910BD403802400004024010B586B077
:102B7000044600BF002000901748006840F00200A3
:102B8000154908600846006800F00200009000BF88
:102B900000BF4FF44070019012200290012003907A
:102BA000032004900420059001A90C48FEF7A2F927
:102BB00000BF0020009008481030006840F400106A
:102BC0000549103108600846006800F400100090C4
:102BD00000BF00BF06B010BD303802400004024004
:102BE000014608684069C0F38020B0B16FF480608E
:102BF0000A68506100200863202081F83D00002011
:102C000081F83E00086C40F00400086400BF00201A
:102C100081F83C0000BF012070470020FCE7000065
:102C20002DE9F84304460F4615469946DDE9088626
:102C30002068006840F480602168086020680068AF
:102C400040F4807021680860434600224FF0011173
:102C50002046009600F014F910B10120BDE8F88379
:102C600007F0FE0021680861334642463949204694
:102C700000F049F908B10120F0E700BF0020009002
:102C800020684069009020688069009000BF00BF04
:102C900032464146204600F0D8F950B1206C042855
:102CA00005D12068006840F40070216808600120A8
:102CB000D4E7B9F1010F03D1E8B22168086117E048
:102CC000C5F307202168086132464146204600F0DE
:102CD000BCF950B1206C042805D12068006840F48C
:102CE0000070216808600120B8E7E8B22168086137
:102CF00032464146204600F0A8F950B1206C042825
:102D000005D12068006840F4007021680860012047
:102D1000A4E72068006840F480702168086043469A
:102D200000224FF001112046009600F0A9F808B1EA
:102D3000012093E7F8B240F00100216808613346B2
:102D400042460449204600F0DEF808B1012085E73C
:102D5000002083E7020001002DE9F843044688467D
:102D600015469946DDE908672068006840F48070E0
:102D700021680860334600224FF001112046009779
:102D800000F07EF810B10120BDE8F88308F0FE00E5
:102D9000216808613B4632462149204600F0B3F8DD
:102DA00008B10120F0E700BF0020009020684069D2
:102DB000009020688069009000BF00BF3A4631460D
:102DC000204600F042F950B1206C042805D120685B
:102DD000006840F40070216808600120D4E7B9F170
:102DE000010F03D1E8B22168086117E0C5F307209D
:102DF000216808613A463146204600F026F950B174
:102E0000206C042805D12068006840F40070216817
:102E100008600120B8E7E8B2216808610020B3E744
:102E20000200010070B504460D46164620E020461B
:102E3000FFF7D6FE08B1012070BD681CC0B1FEF7D7
:102E400051F9801BA84200D895B9002020632020AA
:102E500084F83D00002084F83E00206C40F0200003
:102E6000206400BF002084F83C0000BF0120E3E79D
:102E700020684069C0F380000028D8D00020DBE73C
:102E80002DE9F04104460D4617461E46DDF8188030
:102E90001CE0701CD0B1FEF725F9A0EB0800B04291
:102EA00000D89EB900202063202084F83D00002037
:102EB00084F83E00206C40F02000206400BF002019
:102EC00084F83C0000BF0120BDE8F081C5F3074055
:102ED00001280AD120684069A9B20840A9B28842F5
:102EE00001D101200BE0002009E020688069A9B22F
:102EF0000840A9B2884201D1012000E00020B84278
:102F0000C7D00020E0E72DE9F04104460D46164603
:102F10001F463DE020684069C0F38020E8B120688A
:102F2000006840F40070216808606FF480602168D8
:102F3000486100202063202084F83D00002084F8B0
:102F40003E00206C40F00400206400BF002084F8A4
:102F50003C0000BF0120BDE8F081701CC0B1FEF74D
:102F6000C1F8C01BB04200D896B9002020632020D1
:102F700084F83D00002084F83E00206C40F02000E2
:102F8000206400BF002084F83C0000BF0120E2E77D
:102F9000C5F3074001280AD120684069A9B208405A
:102FA000A9B2884201D101200BE0002009E020688D
:102FB0008069A9B20840A9B2884201D1012000E08D
:102FC00000200028A6D00020C5E770B504460D46B5
:102FD000164632E020684069C0F30010A0B16FF0DF
:102FE00010002168486100202063202084F83D0003
:102FF000002084F83E00206C206400BF002084F88C
:103000003C0000BF012070BDFEF76CF8801BA84299
:1030100000D895B900202063202084F83D000020CE
:1030200084F83E00206C40F02000206400BF0020A7
:1030300084F83C0000BF0120E5E720684069C0F348
:1030400080100028C6D00020DDE770B504460D468C
:10305000164620E02046FFF7C3FD08B1012070BDF1
:10306000681CC0B1FEF73EF8801BA84200D895B995
:1030700000202063202084F83D00002084F83E00DA
:10308000206C40F02000206400BF002084F83C0049
:1030900000BF0120E3E720684069C0F3C0100028AA
:1030A000D8D00020DBE7000070B504460E46022CA5
:1030B00002D36FF001050DE0074951F824000749DC
:1030C00051F82410CA683146904710B16FF00605D8
:1030D00000E00025284670BDD4010020F00100204A
:1030E0002DE9FF4704460F464FF000090126002551
:1030F00014B1012C50D128E03846FFF729FA20B14D
:103100004FF0FF3004B0BDE8F0873B4951F8240090
:103110003A4951F82410CA686946904710B16FF0D7
:103120000600EFE79DF80000012801D145F00105F8
:103130009DF80200012801D145F004059DF8010029
:10314000012801D145F0020529E0384600F0D4F904
:1031500010B14FF0FF30D5E7274951F82400274937
:1031600051F82410CA686946904710B16FF0060004
:10317000C8E79DF80000012801D145F001059DF840
:103180000200012801D145F004059DF80100012845
:1031900001D145F0020502E06FF0010900BF00BF58
:1031A000B9F1000F01D04846ACE74FF000081DE030
:1031B00007EA0600B04216D105EA0600B04212D175
:1031C00004EB44020E4B03EB82020E4B53F8263005
:1031D00052F823201168084A52F82400884710B199
:1031E0006FF004008EE7760008F10108B8F1030FD4
:1031F000DED3484686E70000D4010020F00100201D
:103200009C050020DC0100202DE9F04104460E461B
:103210001746032C02D36FF001051DE0104850F84B
:1032200024003040B04215D104EB44010D4B03EBB8
:1032300081010D4B53F8263051F82310CA690B4910
:1032400051F824003946904710B16FF0040503E0AF
:10325000002501E06FF001052846BDE8F08100007F
:1032600008050020D8040020C0010020CC04002064
:1032700070B504460E46032C02D36FF001050DE035
:10328000074951F82400074951F82410CA6831460B
:10329000904710B16FF0060500E00025284670BD8C
:1032A000CC040020FC0400202DE9F04387B0044644
:1032B0000F464FF000090126002524B1012C2BD028
:1032C000022C78D14FE0384601F0A0FA20B14FF03F
:1032D000FF3007B0BDE8F0834E4951F824004E4955
:1032E00051F82410CA686946904710B16FF0060083
:1032F000EFE79DF80000012801D145F002059DF897
:103300000100012801D145F001059DF802000128C6
:1033100001D145F0040551E0384600F0F3FB10B14F
:103320004FF0FF30D5E73B4951F824003A4951F8B6
:103330002410CA686946904710B16FF00600C8E7CC
:103340009DF80000012801D145F002059DF801001B
:10335000012801D145F001059DF80200012801D1A5
:1033600045F004052AE0384601F03AF810B14FF074
:10337000FF30AEE7274951F82400274951F82410BF
:10338000CA686946904710B16FF00600A1E79DF842
:103390000000012801D145F002059DF80100012837
:1033A00001D145F001059DF80200012801D145F049
:1033B000040503E0FFE76FF0010900BF00BFB9F1AA
:1033C000000F01D0484684E74FF000081DE007EAEF
:1033D0000600B04216D105EA0600B04212D104EB55
:1033E00044020E4B03EB82020D4B53F8263052F889
:1033F00023201168074A52F82400884710B16FF063
:10340000040066E7760008F10108B8F1030FDED387
:1034100048465EE7CC040020FC040020D8040020CD
:10342000C00100202A4890ED000AB8EEC00ADFED86
:10343000290A20EE200A284880ED000A244890ED51
:10344000010AB8EEC00ADFED230A20EE200A234865
:1034500080ED000A1E4890ED020AB8EEC00ADFEDCA
:103460001D0A20EE200A1E4880ED000A1D4890ED3E
:10347000000AB8EEC00ADFED170A20EE200ADFEDE1
:103480001A0A20EE200A194880ED000A154890ED2E
:10349000010AB8EEC00ADFED0F0A20EE200ADFEDC8
:1034A000120A20EE200A124880ED000A0D4890ED25
:1034B000020AB8EEC00ADFED070A20EE200ADFEDAF
:1034C0000A0A20EE200A0B4880ED000A704700002F
:1034D000100400206F12833A2000002024000020F6
:1034E000280000201C04002035FA8E3C2C0000200F
:1034F000300000203400002030B58DB00446002597
:1035000000200890BB208DF82400394806903948E7
:10351000079039480B9039480A9039480C9006A911
:10352000384800F0C1F908B1ED1F5DE005A9354844
:1035300000F0ACF910B16FF0060555E09DF81400ED
:10354000B12802D06FF006054EE001A92D4800F029
:1035500085F89DF804009DF8051040EA41009DF8AB
:10356000061040EA810028494860264827494860FB
:10357000274828494860BDB904F00100A0B19DF872
:103580000400012810D1244924484268244840F806
:1035900022101E4A50681F4A52681168884710B1AD
:1035A0006FF0040500E00025C5B904F00200022810
:1035B00014D19DF80500012810D11A4917488268D6
:1035C000174840F82210114A5068124A5268116890
:1035D000884710B16FF0040500E0002525B904F01C
:1035E0000400042800D1C54328460DB030BD0000BA
:1035F000750A0008410A0008CD0A0008150B0008EA
:10360000390A0008E0050020F8010020D40100205C
:1036100088010020F0010020AC010020DC01002026
:10362000A80500209801002010B5044694F8280051
:1036300001280DD1204600F0BBF810B14FF0FF304B
:1036400010BD204600F0DEF910B14FF0FF30F7E773
:10365000002084F8280000BFF2E7000002460020A6
:1036600088700120487008700020C8709FED060A1D
:1036700081ED010A9FED050A81ED020A9FED030A23
:1036800081ED030A70470000000000000000964230
:10369000F8B505460C460026694605F11C0005F004
:1036A00001FA08B1701EF8BD9DF80000062822D26C
:1036B000DFE800F003080D12171C9FED120A84EDDD
:1036C000000A1BE0B7EE000A84ED000A16E0B2EE35
:1036D000040A84ED000A11E0B3EE090A84ED000A41
:1036E0000CE09FED090A84ED000A07E09FED070A50
:1036F00084ED000A02E04FF0FF3600BF00BF304605
:10370000D1E700000000000000004842000096429F
:1037100010B5044694F8280030B9204600F009F8A6
:1037200010B14FF0FF3010BD012084F828000020B8
:10373000F9E710B50446012104F11C0005F035FA43
:1037400010B14FF0FF3010BD002104F11C0005F056
:10375000D6F910B14FF0FF30F5E7022104F11C005B
:1037600005F00AFA10B14FF0FF30ECE7012104F147
:103770001C0005F07EF910B14FF0FF30E3E7A068C0
:1037800040B9002104F11C0005F05AF958B14FF07E
:10379000FF30D8E7012104F11C0005F051F910B108
:1037A0004FF0FF30CFE7032084F82B000020CAE75A
:1037B00010B5044694F8290008B9002010BD94F80B
:1037C0002A0090B904F12B0104F11C0005F06AF9FC
:1037D00010B14FF0FF30F1E7002104F11C0005F0BB
:1037E0008EF910B14FF0FF30E8E7002084F829008F
:1037F00000BFE3E710B5044694F82900012801D181
:10380000002010BD94F82B1004F11C0005F077F98E
:1038100010B14FF0FF30F4E7012084F829000020B8
:10382000EFE770B504460D4629462046FFF730FF06
:1038300070BD38B504460D4600200090694604F17D
:103840001C0005F0CBF910B14FF0FF3038BD0098E7
:1038500005F086F985ED000A0020F7E710B52DED9B
:10386000028B0446B0EE408A94F82900012807D163
:10387000B0EE480A204600F07FF8BDEC028B10BD88
:10388000B0EE480A204600F04BF8F6E770B5044663
:103890000D46294604F11C0005F04AF910B14FF01D
:1038A000FF3070BD0020FCE72DE9F04104460D46D5
:1038B00000260CB9761E2CE02868206068686060DD
:1038C000A868A060287B207328692061686960610E
:1038D000A869A061104921621048E0616462206813
:1038E00010B94FF0FF3614E02068804710B14FF058
:1038F000FF360EE0A06802280BD194F8280040B9EA
:1039000001273A461021204600F0EBF800B1BE1E18
:1039100000BF3046BDE8F081455F00084167000800
:103920000146F7EE000AB4EEE00AF1EE10FA01D813
:1039300001201BE0F2EE040AB4EEE00AF1EE10FA08
:1039400001D8022012E0F3EE090AB4EEE00AF1EE2B
:1039500010FA01D8032009E0DFED060AB4EEE00A10
:10396000F1EE10FA01D8042000E0052081F82B00C8
:10397000002070470000484270B52DED028B0446D0
:10398000B0EE408AB7EE000AB4EEC08AF1EE10FA4B
:1039900001D801201BE0B2EE040AB4EEC08AF1EEB9
:1039A00010FA01D8022012E0B3EE090AB4EEC08A80
:1039B000F1EE10FA01D8032009E09FED110AB4EEF0
:1039C000C08AF1EE10FA01D8042000E00520054677
:1039D000294604F11C0005F092F820B14FF0FF30A9
:1039E000BDEC028B70BD04F12B0104F11C0005F04D
:1039F00059F810B14FF0FF30F2E70020F0E7000077
:103A00000000484210B5044694F82A0008B9002086
:103A100010BD94F8290090B904F12B0104F11C00A9
:103A200005F040F810B14FF0FF30F1E7002104F14C
:103A30001C0005F064F810B14FF0FF30E8E70020FB
:103A400084F82A0000BFE3E710B5044694F82A0082
:103A5000012801D1002010BD94F82B1004F11C00A6
:103A600005F04DF810B14FF0FF30F4E7012084F875
:103A70002A000020EFE770B504460D46294620468F
:103A8000FFF706FE70BD38B504460D4600200090D5
:103A9000694604F11C0005F0BDF810B14FF0FF308D
:103AA00038BDBDF9000005F04FF885ED000A002093
:103AB000F6E710B52DED028B0446B0EE408A94F87F
:103AC0002A00012807D1B0EE480A2046FFF754FF2C
:103AD000BDEC028B10BDB0EE480A2046FFF720FF78
:103AE000F6E737B504460D46012302AA294604F13C
:103AF0001C0005F09BF810B14FF0FF303EBD0020D8
:103B0000FCE7000030B58FB00446002500200A9085
:103B100033208DF82C002F4808902F4809902F480B
:103B20000D902F480C902F480E9008A92E4800F0B9
:103B300041FB08B1ED1F4AE007A92B4800F02CFB20
:103B400010B16FF0060542E09DF81C00332802D04A
:103B50006FF006053BE06946234800F023F99DF825
:103B600001009DF8001040EA41009DF8021040EA73
:103B700081001E4948601C481D4948601D481E4977
:103B80004860C5B904F00200022814D19DF8000075
:103B9000012810D119491A4882681A4840F82210A1
:103BA000134A5068144A52681168884710B16FF080
:103BB000040500E0002525B904F0010008B16FF00C
:103BC000040525B904F00400042800D1C5432846A3
:103BD0000FB030BD750A0008410A0008CD0A000880
:103BE000150B0008390A00084405002008050020CC
:103BF000CC040020E8000020FC040020F800002095
:103C0000C0010020E404002010B50446204600F066
:103C10000BF810B14FF0FF3010BD002084F82A00DF
:103C200084F8280000BFF7E710B5044694F829008F
:103C300008B9002010BD04F12A0104F11C0005F0B0
:103C400009F910B14FF0FF30F4E7002104F11C0036
:103C500005F03AF910B14FF0FF30EBE7002084F89F
:103C6000290000BFE6E710B5044694F829000128B2
:103C700001D1002010BD94F82A1004F11C0005F0B9
:103C800023F910B14FF0FF30F4E7012084F8290048
:103C90000020EFE73EB505460C469FED200A8DED6E
:103CA000000A01A9284600F03BF810B14FF0FF30A0
:103CB0003EBD6946284600F063F910B14FF0FF3071
:103CC000F6E7BDF9040000EE100AB8EEC00ADDED1B
:103CD000000A20EE200ABDEEC00A84ED000ABDF9FC
:103CE000060000EE100AB8EEC00ADDED000A20EE74
:103CF000200ABDEEC00A84ED010ABDF9080000EEFD
:103D0000100AB8EEC00ADDED000A20EE200ABDEE72
:103D1000C00A84ED020A0020CAE70000000000008B
:103D2000FEB505460C4601260027694605F11C0034
:103D300005F049F908B1B01EFEBD9DF8000020B1A4
:103D4000012804D0022807D103E0102607E040260E
:103D500005E04FF4807602E04FF0FF3700BF00BF70
:103D6000781C08B93846E7E701A905F11C0004F002
:103D70006EFF10B14FF0FF30DEE7BDF9040090FB9D
:103D8000F6F000B22080BDF9060090FBF6F000B21C
:103D90006080BDF9080090FBF6F000B2A0803846C4
:103DA000CAE70000024601200870002048708870B1
:103DB000C8704860102088600020C8609FED060A27
:103DC00081ED040A9FED050A81ED050A9FED020AC7
:103DD00081ED060A70470000000000000000C843A3
:103DE000F8B505460C460026694605F11C0005F0AD
:103DF000A9F808B1701EF8BD9DF8000030B1012887
:103E000007D0022808D003280CD108E00220206047
:103E10000BE00420206008E00820206005E010206E
:103E2000206002E04FF0FF3600BF00BF3046E2E7FF
:103E30007CB505460C46002601A905F11C0005F0DD
:103E4000C2F808B1701E7CBD694605F11C0005F082
:103E500001F810B14FF0FF30F5E79DF8040002289B
:103E600040D19DF800000A2838D2DFE800F0050AAA
:103E70000F14191E23282D329FED390A84ED000AF4
:103E80002FE0B7EE000A84ED000A2AE0B2EE040A41
:103E900084ED000A25E0B3EE090A84ED000A20E073
:103EA0009FED300A84ED000A1BE09FED2F0A84EDA0
:103EB000000A16E09FED2D0A84ED000A11E09FED47
:103EC0002C0A84ED000A0CE09FED2A0A84ED000A1A
:103ED00007E09FED290A84ED000A02E04FF0FF366B
:103EE00000BF3BE09DF800000A2833D2DFE800F075
:103EF000050A0F14191E2328322D9FED190A84ED8F
:103F0000000A2AE0B7EE000A84ED000A25E0B2EECE
:103F1000040A84ED000A20E0B3EE090A84ED000AE9
:103F20001BE09FED100A84ED000A16E09FED0E0ADB
:103F300084ED000A11E09FED0D0A84ED000A0CE00B
:103F40009FED0B0A84ED000A07E09FED0C0A84ED5B
:103F5000000A02E04FF0FF3600BF00BF304672E7B4
:103F600000000000000048420000C8420000484332
:103F70000000C8430080CA440000A8450000A844CF
:103F8000F8B504460D460026694604F11C0005F00C
:103F90001AF808B1701EF8BD9DF8000020B1012884
:103FA0000BD002281BD111E02946204600F01EF854
:103FB00010B14FF0FF30EEE714E02946204600F044
:103FC00085F810B14FF0FF30E5E70BE029462046B9
:103FD00000F044F810B14FF0FF30DCE702E04FF0A2
:103FE000FF3600BF00BF3046D5E70000F8B50546F4
:103FF0000C460026694605F11C0004F0A3FF08B139
:10400000701EF8BD9DF8000030B1012809D00228CB
:104010000CD0032814D10EE09FED0C0A84ED000AA9
:1040200011E09FED0B0A84ED000A0CE09FED090AF8
:1040300084ED000A07E09FED080A84ED000A02E023
:104040004FF0FF3600BF00BF3046DAE748E17A3F65
:104050009A99F93F9A9979401F853B41F8B50546F1
:104060000C460026694605F11C0004F06BFF08B100
:10407000701EF8BD9DF8000030B1012809D002285B
:104080000CD0032814D10EE09FED0C0A84ED000A39
:1040900011E09FED0B0A84ED000A0CE09FED090A88
:1040A00084ED000A07E09FED080A84ED000A02E0B3
:1040B0004FF0FF3600BF00BF3046DAE77B147A418D
:1040C0007B14FA417B147A427B943B43F8B5054656
:1040D0000C460026694605F11C0004F033FF08B1C8
:1040E000701EF8BD9DF8000030B1012809D00228EB
:1040F0000CD0032814D10EE09FED0C0A84ED000AC9
:1041000011E09FED0B0A84ED000A0CE09FED090A17
:1041100084ED000A07E09FED080A84ED000A02E042
:104120004FF0FF3600BF00BF3046DAE79A9979407A
:10413000713DFA407B147A419A993B4210B504468E
:10414000012104F11C0004F06CFE10B14FF0FF30AF
:1041500010BD002104F11C0004F0DBFE10B14FF093
:10416000FF30F5E7052084F82A00002104F11C0047
:1041700004F0AAFE10B14FF0FF30E9E7002104F18E
:104180001C0004F007FF10B14FF0FF30E0E7012002
:1041900084F828000020DBE770B504460D46294668
:1041A00004F11C0004F0A9FE10B14FF0FF3070BD07
:1041B0000020FCE72DE9F04104460D4600260CB92D
:1041C000761E2EE02868206068686060A868A0609D
:1041D000287B20732869206168696061A869A061F3
:1041E000114921621148E0616462206810B94FF002
:1041F000FF3616E02068804710B14FF0FF3610E020
:10420000A06801280DD194F8280050B901273A463A
:104210002321204600F0D4F810B1B81EBDE8F0818B
:1042200000BF3046FAE700007D5E000879660008AE
:1042300070B505460C46022C01DC002008E0042C79
:1042400001DC012004E0082C01DC022000E0032056
:104250000646314605F11C0004F09CFE10B14FF0FB
:10426000FF3070BD0020FCE710B52DED028B044639
:10427000B0EE408A94F82900012807D1B0EE480A30
:10428000204600F04BF8BDEC028B10BDB0EE480AA2
:10429000204600F001F8F6E70146F7EE000AB4EE1A
:1042A000E00AF1EE10FA01D801202DE0F2EE040A46
:1042B000B4EEE00AF1EE10FA01D8022024E0F3EEA9
:1042C000090AB4EEE00AF1EE10FA01D803201BE06F
:1042D000DFED0F0AB4EEE00AF1EE10FA01D8042087
:1042E00012E0DFED0C0AB4EEE00AF1EE10FA01D8AC
:1042F000052009E0DFED080AB4EEE00AF1EE10FA5D
:1043000001D8062000E0072081F82A00002070472D
:10431000000048420000C8420000484370B52DED3F
:10432000028B0446B0EE408AB7EE000AB4EEC08AB3
:10433000F1EE10FA01D801202DE0B2EE040AB4EE3D
:10434000C08AF1EE10FA01D8022024E0B3EE090A87
:10435000B4EEC08AF1EE10FA01D803201BE09FED05
:10436000150AB4EEC08AF1EE10FA01D8042012E06A
:104370009FED110AB4EEC08AF1EE10FA01D80520C3
:1043800009E09FED0E0AB4EEC08AF1EE10FA01D8F2
:10439000062000E007200546294604F11C0004F031
:1043A00093FD20B14FF0FF30BDEC028B70BD0020BB
:1043B000FAE70000000048420000C84200004843FD
:1043C00037B504460D46012302AA294604F11C0014
:1043D00004F016FD10B14FF0FF303EBD0020FCE7A9
:1043E00030B58FB00446002500200A903D208DF89E
:1043F0002C002F4808902F4809902F480D902F48E7
:104400000C902F480E9008A92E4800F08FF908B1A3
:10441000ED1F4AE007A92B4800F07AF910B16FF0C0
:10442000060542E09DF81C00402802D06FF006050A
:104430003BE06946234800F0E1F89DF801009DF853
:10444000001040EA41009DF8021040EA81001E4938
:1044500088601C481D4988601D481E498860C5B990
:1044600004F00400042814D19DF80200012810D1A2
:1044700019491A4802691A4840F82210134A9068EC
:10448000144A92681168884710B16FF0040500E083
:10449000002525B904F00200022800D1C51F25B966
:1044A00004F0010008B16FF0040528460FB030BDDC
:1044B000750A0008410A0008CD0A0008150B00081B
:1044C000390A00087005002008050020CC040020EF
:1044D0001C010020FC0400202C010020C001002051
:1044E000F004002010B50446204600F009F810B191
:1044F0004FF0FF3010BD002084F8280000BFF9E71E
:1045000010B5044694F8290008B9002010BD022116
:1045100004F11C0004F026FC10B14FF0FF30F5E769
:10452000002084F8290000BFF0E710B5044694F895
:104530002900012801D1002010BD002104F11C0038
:1045400004F010FC10B14FF0FF30F5E7012084F8C3
:1045500029000020F0E73EB505460C4601A905F10B
:104560001C0004F031FC10B14FF0FF303EBD694635
:10457000284600F09BF8BDF9040000EE100AB8EEE2
:10458000C00ADDED000A20EE200ABDEEC00A84ED6F
:10459000000ABDF9060000EE100AB8EEC00ADDED13
:1045A000000A20EE200ABDEEC00A84ED010ABDF922
:1045B000080000EE100AB8EEC00ADDED000A20EE99
:1045C000200ABDEEC00A84ED020A0020CEE77CB5C9
:1045D00005460C46694605F11C0004F0F5FB10B1D8
:1045E0004FF0FF307CBDBDF800002080BDF8020018
:1045F0006080BDF80400A0800020F3E702460020A0
:1046000008704870012088700020C8704860886079
:104610003220C8609FED060A81ED040A9FED040A6E
:1046200081ED050A9FED030A81ED060A002070471F
:10463000000000000000C84202463220086000204E
:1046400070470000F8B505460C460026694605F19E
:104650001C0004F021FB08B1701EF8BD9DF800009D
:1046600030B1012809D002280CD0032814D10EE063
:10467000B2EE040A84ED000A11E0B3EE040A84ED00
:10468000000A0CE09FED070A84ED000A07E09FEDA9
:10469000060A84ED000A02E04FF0FF3600BF00BFBB
:1046A0003046DAE7000048420000C8420246B7EE52
:1046B000080A81ED000A0020704710B50446012168
:1046C00004F11C0004F0CFFA10B14FF0FF3010BD20
:1046D000022104F11C0004F045FB10B14FF0FF3043
:1046E000F5E7032104F11C0004F0FEFA10B14FF0CD
:1046F000FF30ECE7002104F11C0004F04CFB10B18A
:104700004FF0FF30E3E7012084F828000020DEE7C7
:1047100070B504460D46294604F11C0004F0FDFA6C
:1047200010B14FF0FF3070BD0020FCE770B50446BB
:104730000D4600260CB9761E2BE0286820606868BC
:104740006060A868A060287B207328692061686980
:104750006061A869A061104921621048E06164624B
:10476000206810B94FF0FF3613E02068804710B181
:104770004FF0FF360DE0A06858B194F8280040B91A
:10478000012104F11C0004F0D4FA10B14FF0FF3005
:1047900070BD3046FCE70000B55E0008B166000859
:1047A000024600207047000070B52DED028B0446D4
:1047B000B0EE408AB2EE040AB4EEC08AF1EE10FA0E
:1047C00001D8002012E0B3EE040AB4EEC08AF1EE84
:1047D00010FA01D8012009E09FED0B0AB4EEC08A5F
:1047E000F1EE10FA01D8022000E003200546294628
:1047F00004F11C0004F078FA20B14FF0FF30BDEC5A
:10480000028B70BD0020FAE70000484230B58FB03F
:104810000446002500200A90D7208DF82C00394846
:1048200008903948099039480D9039480C9039481A
:104830000E9008A9384800F0FBFD08B1ED1F5DE0BF
:1048400007A9354800F0E6FD10B16FF0060555E008
:104850009DF81C006A2802D06FF006054EE06946FC
:104860002D4800F06BFD9DF801009DF8001040EA16
:1048700041009DF8021040EA81002849086026485E
:1048800027490860274828490860BDB904F001009D
:10489000A0B19DF80100012810D12448244949689D
:1048A000244A42F821001E4A10681F4A1268116803
:1048B000884710B16FF0040500E00025C5B904F089
:1048C0000200022814D19DF80000012810D11A48D6
:1048D00017498968174A42F82100114A1068124A9C
:1048E00012681168884710B16FF0040500E00025D8
:1048F00025B904F00400042800D1C54328460FB0B0
:1049000030BD0000750A0008410A0008CD0A000801
:10491000150B0008390A00081405002008050020BE
:10492000CC04002090000020FC040020C4000020E3
:10493000C0010020D8040020A000002010B50446CB
:1049400094F8290008B9002010BD04F12B0104F1EE
:104950001C0004F089FC10B14FF0FF30F4E7002197
:1049600004F11C0004F0C1FC10B14FF0FF30EBE784
:10497000002084F8290000BFE6E710B5044694F84B
:104980002900012801D1002010BD94F82B1004F15A
:104990001C0004F0AAFC10B14FF0FF30F4E7012036
:1049A00084F829000020EFE73EB505460C469FED50
:1049B000200A8DED000A01A905F11C0004F029FB75
:1049C00010B14FF0FF303EBD6946284600F0E0F8D8
:1049D00010B14FF0FF30F6E7BDF9040000EE100A09
:1049E000B8EEC00ADDED000A20EE200ABDEEC00AD6
:1049F00084ED000ABDF9060000EE100AB8EEC00A08
:104A0000DDED000A20EE200ABDEEC00A84ED010AA9
:104A1000BDF9080000EE100AB8EEC00ADDED000A8C
:104A200020EE200ABDEEC00A84ED020A0020CAE78B
:104A3000000000007CB505460C46694605F11C00E7
:104A400004F0E7FA10B14FF0FF307CBDBDF8000074
:104A50002080BDF802006080BDF80400A080002026
:104A6000F3E7F8B505460C460026694605F11C003B
:104A700004F054FC08B1701EF8BD9DF8000030B180
:104A800001280DD0022805D003280CD105E0022012
:104A900020600BE00420206008E00820206005E092
:104AA0001020206002E04FF0FF3600BF00BF30460C
:104AB000E2E70000F8B505460C460026694605F118
:104AC0001C0004F0D1FB08B1701EF8BD9DF8000079
:104AD0000C2843D2DFE800F00610151A1F24292EF7
:104AE00033383D0B9FED200A84ED000A39E09FED3D
:104AF0001F0A84ED000A34E0B2EE090A84ED000AD0
:104B00002FE0B3EE0A0A84ED000A2AE09FED180AAE
:104B100084ED000A25E09FED170A84ED000A20E0ED
:104B20009FED150A84ED000A1BE09FED140A84ED49
:104B3000000A16E09FED120A84ED000A11E09FEDD5
:104B4000110A84ED000A0CE09FED0F0A84ED000AC3
:104B500007E09FED0E0A84ED000A02E04FF0FF36F9
:104B600000BF00BF3046B0E700000000CDCCCC3F16
:104B7000000050420000D042000050430000D043EB
:104B8000004050440080CF44002050450020D045D4
:104B9000F8B505460C460026694605F11C0004F0F0
:104BA000BDFB08B1701EF8BD9DF8000030B10128B2
:104BB00013D0022807D0032814D109E09FED0C0A76
:104BC00084ED000A11E09FED0B0A84ED000A0CE071
:104BD0009FED090A84ED000A07E09FED080A84EDC5
:104BE000000A02E04FF0FF3600BF00BF3046DAE7B0
:104BF00023DB793D23DBF93D23DB793E23DBF93EE3
:104C000070B505460C46022C01DC002008E0042C9F
:104C100001DC022004E0082C01DC032000E001207C
:104C20000646314605F11C0004F0A0FB10B14FF020
:104C3000FF3070BD0020FCE710B52DED028B04465F
:104C4000B0EE408A94F82900012807D1B0EE480A56
:104C5000204600F06FF8BDEC028B10BDB0EE480AA4
:104C6000204600F001F8F6E70146F2EE090AB4EE3C
:104C7000E00AF1EE10FA01D8012048E0F3EE0A0A4A
:104C8000B4EEE00AF1EE10FA01D802203FE0DFEDC9
:104C9000220AB4EEE00AF1EE10FA01D8032036E061
:104CA000DFED1E0AB4EEE00AF1EE10FA01D804209E
:104CB0002DE0DFED1B0AB4EEE00AF1EE10FA01D8A8
:104CC000052024E0DFED170AB4EEE00AF1EE10FA59
:104CD00001D806201BE0DFED140AB4EEE00AF1EE85
:104CE00010FA01D8072012E0DFED100AB4EEE00A56
:104CF000F1EE10FA01D8082009E0DFED0D0AB4EE5C
:104D0000E00AF1EE10FA01D8092000E00A2081F84B
:104D10002B00002070470000000050420000D042ED
:104D2000000050430000D043004050440080CF4476
:104D30000020504570B52DED028B0446B0EE408A40
:104D4000B2EE090AB4EEC08AF1EE10FA01D80120E1
:104D500048E0B3EE0A0AB4EEC08AF1EE10FA01D8C8
:104D600002203FE09FED260AB4EEC08AF1EE10FA71
:104D700001D8032036E09FED230AB4EEC08AF1EE9D
:104D800010FA01D804202DE09FED1F0AB4EEC08A6E
:104D9000F1EE10FA01D8052024E09FED1C0AB4EED4
:104DA000C08AF1EE10FA01D806201BE09FED180A28
:104DB000B4EEC08AF1EE10FA01D8072012E09FEDA0
:104DC000150AB4EEC08AF1EE10FA01D8082009E005
:104DD0009FED110AB4EEC08AF1EE10FA01D8092055
:104DE00000E00A200546294604F11C0004F07DFA83
:104DF00020B14FF0FF30BDEC028B70BD0020FAE710
:104E0000000050420000D042000050430000D04358
:104E1000004050440080CF440020504510B5044667
:104E20002046FFF78BFD10B14FF0FF3010BD20463C
:104E300000F00CF810B14FF0FF30F7E700202834F5
:104E4000E070207104F8280900BFEFE710B50446B0
:104E500094F82A0008B9002010BD04F12C0104F1D7
:104E60001C0004F045F910B14FF0FF30F4E70021C9
:104E700004F11C0004F07AF910B14FF0FF30EBE7B9
:104E8000002084F82A0000BFE6E710B5044694F835
:104E90002A00012801D1002010BD94F82C1004F143
:104EA0001C0004F063F910B14FF0FF30F4E701206B
:104EB00084F82A000020EFE73EB505460C4601A91C
:104EC00005F11C0004F0B1F810B14FF0FF303EBD09
:104ED0006946284600F0DEF810B14FF0FF30F6E7E3
:104EE000BDF9040000EE100AB8EEC00ADDED000ABC
:104EF00020EE200ABDEEC00A84ED000ABDF90600CE
:104F000000EE100AB8EEC00ADDED000A20EE200A1D
:104F1000BDEEC00A84ED010ABDF9080000EE100ADA
:104F2000B8EEC00ADDED000A20EE200ABDEEC00A90
:104F300084ED020A0020CAE77CB505460C466946A6
:104F400005F11C0004F071F810B14FF0FF307CBD8A
:104F5000BDF800002080BDF802006080BDF80400AC
:104F6000A0800020F3E7F8B505460C460026694608
:104F700005F11C0004F013F908B1701EF8BD9DF88E
:104F80000000072817D2DFE800F007040A160E1603
:104F900012007D20206011E0FA2020600EE04FF426
:104FA000FA7020600AE04FF47A70206006E04FF457
:104FB000FA60206002E04FF0FF3600BF00BF3046CD
:104FC000DCE70000F8B505460C460026694605F109
:104FD0001C0004F08DF808B1701EF8BD9DF80000AB
:104FE0000B283ED2DFE800F0060B10151A1F24290B
:104FF0002E3338009FED1E0A84ED000A34E0B2EE35
:10500000090A84ED000A2FE0B3EE0A0A84ED000AD3
:105010002AE09FED180A84ED000A25E09FED160AAC
:1050200084ED000A20E09FED150A84ED000A1BE0E4
:105030009FED130A84ED000A16E09FED120A84ED3D
:10504000000A11E09FED100A84ED000A0CE09FEDCC
:105050000F0A84ED000A07E09FED0D0A84ED000AB7
:1050600002E04FF0FF3600BF00BF3046B5E700005A
:1050700000000000000050420000D04200005043F9
:105080000000D043004050440080CF4400205045F1
:105090000020D045F8B505460C460026694605F1C6
:1050A0001C0004F07CF808B1701EF8BD9DF80000EB
:1050B00007281ED2DFE800F009040E1D131D18009A
:1050C0009FED0F0A84ED000A16E09FED0E0A84EDB5
:1050D000000A11E09FED0C0A84ED000A0CE09FED40
:1050E0000B0A84ED000A07E09FED090A84ED000A2F
:1050F00002E04FF0FF3600BF00BF3046D5E70000AA
:1051000000008C4000000C4100008C4100000C426B
:1051100000008C4270B505460C467D2C01DC012058
:105120000EE0FA2C01DC00200AE0B4F5FA7F01DC85
:10513000022005E0B4F57A7F01DC042000E00620BF
:105140000646314605F11C0004F054F810B14FF04A
:10515000FF3070BD0020FCE710B52DED028B04463A
:10516000B0EE408A94F82A00012807D1B0EE480A30
:10517000204600F06FF8BDEC028B10BDB0EE480A7F
:10518000204600F001F8F6E70146F2EE090AB4EE17
:10519000E00AF1EE10FA01D8012048E0F3EE0A0A25
:1051A000B4EEE00AF1EE10FA01D802203FE0DFEDA4
:1051B000220AB4EEE00AF1EE10FA01D8032036E03C
:1051C000DFED1E0AB4EEE00AF1EE10FA01D8042079
:1051D0002DE0DFED1B0AB4EEE00AF1EE10FA01D883
:1051E000052024E0DFED170AB4EEE00AF1EE10FA34
:1051F00001D806201BE0DFED140AB4EEE00AF1EE60
:1052000010FA01D8072012E0DFED100AB4EEE00A30
:10521000F1EE10FA01D8082009E0DFED0D0AB4EE36
:10522000E00AF1EE10FA01D8092000E00A2081F826
:105230002C00002070470000000050420000D042C7
:10524000000050430000D043004050440080CF4451
:105250000020504570B52DED028B0446B0EE408A1B
:10526000B2EE090AB4EEC08AF1EE10FA01D80120BC
:1052700048E0B3EE0A0AB4EEC08AF1EE10FA01D8A3
:1052800002203FE09FED260AB4EEC08AF1EE10FA4C
:1052900001D8032036E09FED230AB4EEC08AF1EE78
:1052A00010FA01D804202DE09FED1F0AB4EEC08A49
:1052B000F1EE10FA01D8052024E09FED1C0AB4EEAF
:1052C000C08AF1EE10FA01D806201BE09FED180A03
:1052D000B4EEC08AF1EE10FA01D8072012E09FED7B
:1052E000150AB4EEC08AF1EE10FA01D8082009E0E0
:1052F0009FED110AB4EEC08AF1EE10FA01D8092030
:1053000000E00A200546294604F11C0003F02EFFA8
:1053100020B14FF0FF30BDEC028B70BD0020FAE7EA
:10532000000050420000D042000050430000D04333
:10533000004050440080CF440020504502460120E8
:105340000870487000208870C8704FF4FA60486098
:10535000102088600020C8609FED060A81ED040AD5
:105360009FED040A81ED050A9FED030A81ED060A0F
:10537000704700000020D0450000000010B5044632
:10538000012104F11C0003F05CFE10B14FF0FF306E
:1053900010BD012104F11C0003F06CFE10B14FF0B0
:1053A000FF30F5E7002104F11C0003F088FE10B186
:1053B0004FF0FF30ECE7042084F82B00002104F1CB
:1053C0001C0003F092FF10B14FF0FF30E0E7002126
:1053D00004F11C0003F0CAFF10B14FF0FF30D7E713
:1053E000042084F82C00002104F11C0003F0BEFE10
:1053F00010B14FF0FF30CBE7062104F11C0003F0A1
:10540000F9FE10B14FF0FF30C2E7012084F8280008
:105410000020BDE770B504460D46294604F11C0086
:1054200003F041FE10B14FF0FF3070BD0020FCE7EB
:105430002DE9F04104460D4600260CB9761E2DE0FC
:105440002868206068686060A868A060287B207376
:105450002869206168696061A869A06111492162B9
:105460001148E0616462206810B94FF0FF3615E022
:105470002068804710B14FF0FF360FE0A068022887
:105480000CD194F8280048B90C273A46122120463E
:1054900000F00CF808B14FF0FF3600BF3046BDE811
:1054A000F0810000ED5E0008E966000837B50446AB
:1054B0000D46012302AA294604F11C0003F0C3FE95
:1054C00010B14FF0FF303EBD0020FCE700BF154893
:1054D00000780128FBD1002012490870FBF784FBFB
:1054E0000020FBF77DFA0020FBF720FCFDF79AFF78
:1054F0000D48D0ED002A0D4890ED002A0C48D0ED63
:10550000001A0C4890ED001A0B48D0ED000A0B4829
:1055100090ED000A0A4800F0EDFA0020FBF752FB7C
:10552000D5E70000380000202800002024000020DB
:105530002000002034000020300000202C0000203B
:105540004004002001200149087070473800002005
:10555000F0EE400A90ED020A90ED011A20EE010AE9
:1055600090ED001AD0ED031A01EE610A90ED031AD6
:10557000D0ED011A31EE611A01EE200A90ED021A07
:10558000D0ED001A71EE611A80EE211AB0EE410AD8
:105590007047000010B50548054908600846FBF74C
:1055A000CFFB08B1FBF7C0FB10BD0000003002408C
:1055B0000000002000B587B0142102A8FAF73EFED3
:1055C00000BF002001903448006840F004003249D8
:1055D00008600846006800F00400019000BF00BFAA
:1055E00000BF002001900846006840F0800008607D
:1055F0000846006800F08000019000BF00BF00BFB7
:10560000002001900846006840F00100086008464C
:10561000006800F00100019000BF00BF00BF002043
:1056200001900846006840F00200086008460068E3
:1056300000F00200019000BF00BF002220211748A7
:10564000FBF74AFD00224FF480711548FBF744FD3B
:105650004FF400500290134803900020049002A9D8
:105660000F48FBF747FC2020029001200390002008
:105670000490059002A90948FBF73CFC40200290E9
:105680000120039000200490059002A90448FBF734
:1056900031FC07B000BD000030380240000002407D
:1056A000000802400000211070B5044600250B4898
:1056B00020600B4860600021A160E1604FF48041F0
:1056C000216100216161A161E16121622046FBF756
:1056D0005BFD00B10125284670BD0000005400406C
:1056E000A086010030B587B00020FBF737FA012112
:1056F0000020FBF7A5FA0020FBF78EFA08B901207D
:1057000000E00020914908600020FBF773F90321B5
:105710000020FDF7C9FD02210120FDF7C5FD042190
:105720000220FDF7C1FD002491E0C4EBC400884ACB
:1057300002EB80012046FDF79BFDC4EBC4008449C9
:1057400001EB8000C078C4EBC401814A02EB810107
:105750008978C4EBC4027E4B03EB82025278C4EB1F
:10576000C4037B4D15F82330CDE90032CDE902109A
:105770002346784A4FF48071774801F01DF8764946
:1057800076A001F009F8C4EBC400294601EB8000C3
:10579000D0ED050AB0EE600A032104A802F03CFF38
:1057A000C4EBC400294601EB800080680699CDE96E
:1057B00000106BA24FF480716748059B00F0FCFF5E
:1057C000654966A000F0E8FFC4EBC400294601EB80
:1057D0008000D0ED040AB0EE600A032104A802F0B4
:1057E0001BFFC4EBC400294601EB8000406806990A
:1057F000CDE9001065A24FF480715748059B00F079
:10580000DBFF554955A000F0C7FFC4EBC400294693
:1058100001EB8000D0ED060AB0EE600A032104A877
:1058200002F0FAFEC4EBC400294601EB8000C06818
:105830000699CDE9001061A24FF480714648059B9E
:1058400000F0BAFF444945A000F0A6FF641C032CF9
:10585000FFF46BAF05210020FDF742FC032101207E
:10586000FDF73EFC00246DE05F4800EB041120468C
:10587000FDF71AFC5C4800EB0410C2785A4800EBB4
:1058800004108178584800EB04104078564B03EB25
:1058900004131B78CDE90030CDE902122346534AA8
:1058A0004FF480712C4800F087FF2B492BA000F0AB
:1058B00073FF4D4800EB0410D0ED020AB0EE600A11
:1058C000032104A802F0A8FE0698009048A24FF415
:1058D00080712148059B00F06FFF1F491FA000F059
:1058E0005BFF414800EB0410D0ED030AB0EE600A04
:1058F000032104A802F090FE0698009043A24FF402
:1059000080711548059B00F057FF134913A000F064
:1059100043FF354800EB0410D0ED010AB0EE600AF9
:10592000032104A802F078FE069800903FA24FF4ED
:1059300080710948059B00F03FFF074907A000F070
:105940002BFF641C022C8FD307B030BD0C0000204D
:1059500008020020E09500087C020020257300006A
:10596000204D415820414343204F44523A20256462
:105970002E2530336420487A2C204D415820414355
:10598000432046533A2025640D0A0000204D41581B
:10599000204759524F204F44523A2025642E25303B
:1059A000336420487A2C204D4158204759524F20CB
:1059B00046533A2025640D0A00000000204D41584E
:1059C000204D4147204F44523A2025642E25303344
:1059D0006420487A2C204D4158204D4147204653A1
:1059E0003A2025640D0A00005C020020549600084D
:1059F000204D41582054454D50204F44523A2025C7
:105A0000642E2530336420487A0D0A00204D415819
:105A1000205052455353204F44523A2025642E259E
:105A200030336420487A0D0A00000000204D4158B0
:105A30002048554D204F44523A2025642E253033BE
:105A40006420487A0D0A000010B5FFF74BFE10BD28
:105A500000B587B000200390049005900690019057
:105A6000029015481549086040F24730486000210F
:105A70001248816040F2F311C1600021016181612F
:105A8000FCF70EFB08B1FBF74FF94FF48050039081
:105A900003A90A48FCF757FB08B1FBF745F90020BA
:105AA0000190029001A90548FCF7D0FA08B1FBF774
:105AB0003BF907B000BD0000000400407C0300205B
:105AC00070B5044600250A4820604FF4E13060605C
:105AD0000021A160E16021610C2161610021A161CF
