:020000040800F2
:10000000A0AA0020A901000843E800087BB6000868
:10001000D5E60008778D000871F3000800000000A5
:1000200000000000000000000000000069EA000875
:100030009B8E0008000000006DE800086BEA0008D5
:10004000C3010008C3010008C3010008C301000880
:10005000C3010008C3010008C3010008C301000870
:10006000C3010008C3010008C3010008C301000860
:10007000C3010008C3010008C3010008C301000850
:100080007D8D00088D8D0008C30100080000000070
:10009000000000000000000000000000C301000894
:1000A000C3010008C3010008C3010008C301000820
:1000B000C301000895EB0008C3010008C301000854
:1000C000C3010008C3010008C3010008C301000800
:1000D000C3010008F5F10008C3010008000000009A
:1000E000C3010008C3010008C301000800000000AC
:1000F000000000000000000000000000C301000834
:1001000000000000C3010008C3010008C30100088B
:1001100000000000000000000000000000000000DF
:10012000C30100089D8D0008C3010008C301000839
:10013000C3010008000000000000000000000000F3
:10014000000000000000000000000000C3010008E3
:10015000C3010008AD8D0008C3010008F9F20008D2
:10016000C3010008C30100080000000000000000F7
:10017000000000000000000000000000000000007F
:1001800000000000C30100080000000000000000A3
:10019000C3010008DFF80CD000F096FC00480047CF
:1001A00029340108A0AA00200648804706480047D5
:1001B000FEE7FEE7FEE7FEE7FEE7FEE7FEE7FEE717
:1001C000FEE7FEE731EB0008950100082DE9F05F3E
:1001D0000546002092469B468846064681464024B6
:1001E0001BE0284641464746224600F00AFB53469C
:1001F0005A46C01A914110D311461846224600F0C3
:10020000F1FA2D1A67EB01084F4622460120002122
:1002100000F0E8FA17EB00094E41201EA4F101049A
:10022000DFDC484631462A464346BDE8F09F10B51C
:1002300040EA01040346A40703D009E010C9121FD5
:1002400010C3042AFAD203E011F8014B03F8014B62
:10025000521EF9D210BDD2B201E000F8012B491EA6
:10026000FBD270470022F6E710B513460A46044653
:100270001946FFF7F0FF204610BD034611F8012B89
:1002800000F8012B002AF9D1184670472DE9FE4FDE
:10029000804681EA0300C00F0C46009021F0004127
:1002A00023F00045B8EB0200A94105D240462146A3
:1002B00090461C460B46024623F00040104347D0B0
:1002C000270DC7F30A00C3F30A510290401A0190A8
:1002D00040286BDAC3F3130040F4801B0098924669
:1002E00020B10023D2EB030A63EB0B0B01985946B4
:1002F000C0F14002504600F075FA06460D465046E1
:100300005946019A00F08DFA10EB08006141002473
:1003100087EA115284EAE7731A4340D0009A62B325
:10032000019A012A4FEA075215DC001B61EB02011A
:100330004FF0004202EA0752CDE90042001C41F5AD
:10034000801132462B4600F0C4FA03B0BDE8F08FAE
:1003500040462146F9E7001B61EB0201001C41F514
:10036000801300185B412018A2F5001747EB03012A
:1003700040EAD570B6196D4111E06D084FEA3606B6
:1003800045EAC0754FEA0752001B61EB0201001CF1
:1003900041F5801149084FEA3000001951413246B9
:1003A0002B4603B0BDE8F04F00F084BA009801225C
:1003B00040000023D0EB020263EBE073009821467B
:1003C0004FEAE074B8EB000061EB0401E9E783F069
:1003D00000435BE781F0004158E72DE9FE4F81EAD9
:1003E000030404F0004421F0004100944FF0000B9E
:1003F00023F0004350EA01045ED052EA03045BD0CC
:10040000C3F30A54C1F30A552C44A4F2F334019403
:10041000A0FB0254C1F3130141F48011C3F3130391
:1004200043F4801301FB024400FB034E840A970A45
:1004300044EA815447EA8357A4FB076802958D0A72
:1004400005FB07854FEA932C04FB0C542705029DFE
:100450004FEA065847EA1637B5EB08056EEB070C6E
:10046000870E920E47EA811742EA8312A7FB020128
:10047000B6EB0B0164EB00042B0D43EA0C335E1862
:1004800044EB1C50DA465146E7FB0201C5F3130466
:100490004FEA0B3343EA14534FEA0432019C43EA18
:1004A0000603A4F10C040294009CCDE900B400F012
:1004B00010FA03B0BDE8F08F00200146F9E72DE9FE
:1004C000F04D81EA030404F0004B21F0004514468E
:1004D0004FF0000A23F0004150EA050220D054EA10
:1004E00001021DD0C5F30A570246C5F31303C1F339
:1004F0001300C1F30A5640F4801543F48013A7EBB0
:100500000608101BD64608F2FD3873EB050002D32F
:1005100008F1010801E092185B41B8F1000F03DA1D
:1005200000200146BDE8F08D00204FF48011064602
:1005300084460EE0171B73EB050705D3121B63EB14
:10054000050306434CEA010C49084FEA30009218B3
:100550005B4150EA0107EDD152EA030012D082EA72
:10056000040083EA0501084305D0101BAB4106D205
:100570000122002306E000224FF0004302E06FF06A
:10058000010253101AEB06004CEB085110EB0A0065
:1005900041EB0B01BDE8F04D00F08CB930B5041E05
:1005A00071F1000404DB4FF00044404264EB0101B0
:1005B000141E73F1000405DB1C464FF00043524249
:1005C00063EB0403801A994101D3012030BD002060
:1005D00030BD30B5041E71F1000404DB4FF000445F
:1005E000404264EB0101141E73F1000405DB1C465C
:1005F0004FF00043524263EB0403101A8B4101D2C7
:10060000012030BD002030BD30B5041E71F1000462
:1006100004DB4FF00044404264EB0101141E73F10F
:10062000000405DB1C464FF00043524263EB040319
:10063000101A8B4101D3012030BD002030BD30B5F0
:10064000041E71F1000404DB4FF00044404264EBEF
:100650000101141E73F1000405DB1C464FF000433A
:10066000524263EB0403801A994101D2012030BD4C
:10067000002030BD30B5041E71F1000404DB4FF0E2
:100680000044404264EB0101141E73F1000405DBD9
:100690001C464FF00043524263EB040342404B4080
:1006A0001A4301D0002030BD012030BD0EB5C10F6E
:1006B00080EAE0700844CA07002140F233438DE825
:1006C0000E000A460B4600F004F903B000BD0EB55B
:1006D00040F2334102910021CDE900110A460B4658
:1006E00000F0F7F803B000BD70B5C1F30A5201F095
:1006F00000450024C1F3130140F2FF3341F480119F
:100700009A4201DA002070BD40F233439A42A2F2CD
:10071000334203DC524200F074F800E090402C4376
:10072000F1D0404270BD00F0004230F000400AD0ED
:10073000C10D01F56071C0F3160042EA0151C20813
:1007400040071143704700200146704730B5041E32
:1007500071F1000404DB4FF00044404264EB0101FE
:10076000141E73F1000405DB1C464FF00043524297
:1007700063EB04038B4208BF824230BD30B5041ED8
:1007800071F1000404DB4FF00044404264EB0101CE
:10079000141E73F1000405DB1C464FF00043524267
:1007A00063EB0403994208BF904230BD01F000435F
:1007B00030B421F0004150EA010206D00A0DA2F542
:1007C0006072C1F31301002A02DC30BC00207047C4
:1007D000440F44EAC104C100E01830BC00EBC25031
:1007E00000F031B8202A04DB203A00FA02F10020A0
:1007F00070479140C2F1200320FA03F3194390405F
:100800007047202A04DB203A21FA02F000217047C9
:1008100021FA02F3D040C2F1200291400843194668
:100820007047202A06DBCB17203A41FA02F043EA50
:10083000E07306E041FA02F3D040C2F12002914099
:100840000843194670470029A8BF7047401C49005B
:1008500008BF20F00100704710B4B0FA80FC00FA25
:100860000CF050EA010404BF10BC704749B1CCF150
:10087000200421FA04F411FA0CF118BF01212143DC
:100880000843A3EB0C01CB1D4FEA00614FEA102097
:1008900042BF002010BC704700EBC3501044002939
:1008A000A4BF10BC7047401C490008BF20F00100E5
:1008B00010BC704710B5141E73F1000408DA401C18
:1008C00041F1000192185B411A4301D120F001006F
:1008D00010BD2DE9F04D92469B4611B1B1FA81F25F
:1008E00002E0B0FA80F220329046FFF77BFF044628
:1008F0000F4640EA0A0041EA0B0153465A460843B4
:1009000013D0114653EA010019D0C8F140025046F5
:10091000FFF777FF05460E46504659464246FFF719
:1009200061FF084305D0012004E020463946BDE8B8
:10093000F08D0020054346EAE0762C4337430A98C1
:100940006305E40AA0EB08000022FD0A44EA4754CC
:100950000A3002D500200146E9E701051019694176
:10096000DDE9084500196941BDE8F04DA2E770B521
:1009700021F0004303430CD0C1F30A550024D5EB0A
:10098000040564EB0403D617AD1AB34102DB002063
:10099000014670BD201841EB025170BD2DE9F04DAC
:1009A00000231A461B1A8A4103DB00200146BDE8DA
:1009B000F08DC1F30A52C1F3130141F480154FF0D9
:1009C000000BD10702D100186D41521E00270446CA
:1009D00040F2FF11384601EB620A3E46804602466D
:1009E00000204FF48011FFF70CFFC2197141BB18B2
:1009F00046EB0100B4EB030C75EB000C04D3E41AD6
:100A000065EB000517460E46241908F101006D41FB
:100A100080463428E3DDF91946EB0600091BA8419E
:100A200003D24FF0FF32134601E0002213461BEBC6
:100A3000070046EB0A51BDE8F04DFFF73BBF000051
:100A40002DE9F041054621F000400C46284309D02D
:100A5000C4F30A5040F23341884205DD284621465E
:100A6000BDE8F0812846FBE740F2FE31884210DC09
:100A70000CDB4FEA043040EA155050EA053105D04E
:100A8000104804F0004101430020E9E7002001463E
:100A9000E6E7A0F233404642C6F14002284621462E
:100AA000FFF7A0FE07468846284621463246FFF754
:100AB000A8FE43463A46FFF7FDFE3246BDE8F04148
:100AC000FFF790BE0000F03F064C074D06E0E068DF
:100AD00040F0010394E8070098471034AC42F6D385
:100AE000FFF75CFBDC3A0108FC3A010870B58C1892
:100AF00010F8015B15F0070301D110F8013B2A1132
:100B000006D110F8012B03E010F8016B01F8016B1E
:100B10005B1EF9D12B0705D40023521E0DD401F81A
:100B2000013BFAE710F8013BCB1A921C03E013F8E3
:100B3000015B01F8015B521EF9D5A142D8D3002018
:100B400070BD0000F0B597B0044601238DF8413028
:100B500016A9002301F8543D542000F06DF8012837
:100B600001D117B0F0BD00238DF80430029D002D97
:100B7000F7D09DF80C30002BF3D09DF84030002BBF
:100B8000EFD09DF841209A42EBD30DF10C0C04F10B
:100B90006C060DF13C0E67460FCF30607160B2609D
:100BA000F360BC4610367745F5D138683060E561B2
:100BB00010AD0FCD6065A165E265236603CD60666B
:100BC000A166CEE7F0B597B0064601238DF8043054
:100BD00000F1580403AF00F1880C3D4620686168BD
:100BE000A268E3680FC510342F466445F5D120682C
:100BF0002860B368029310AC56F8400F7168B26871
:100C0000F3680FC43069716903C401A9542000F06E
:100C100015F817B0F0BD00BF10B5044600F008F895
:100C200082236381014B236110BD00BFB41C0020EF
:100C300000230381C36070470DF04EBD0DF04FBD22
:100C4000104B93F8493D0BB91846704770B40E4EDF
:100C500005460FCE8BB001AC0FC4336824F8023BBD
:100C60001B0C237001AC0FCC2688EB60A4782860A5
:100C7000122318466960AA602E82AC740BB070BC57
:100C8000704700BFB41C0020B83A01082DE9F041BC
:100C9000504C94F8493D0BB9BDE8F081431EB3F5C3
:100CA0007A7FF9D20E46054607B2002900F0898006
:100CB00004F58C6800264046FFF7AEFF4FF47A73C8
:100CC00031464FF4487204F5A060A4F8B03484F8BB
:100CD000A864C4F8AC6484F8746484F87564FFF79D
:100CE000C3FA5F224FF48070FF23314684F8012558
:100CF0004FF4706C2E22A4F8B40404F2CE4084F8B1
:100D0000023584F88634C4F87864C4F87C64C4F886
:100D10008064A4F884C4FFF7A7FAA5F10A039BB284
:100D20004FF07E520121322B84F8CC64C8F87C202D
:100D3000C8F88C20C8F89C2084F8CD1401D884F819
:100D4000A81400212448FFF7FDFEB4F96234234AB9
:100D50005B1B07EE903AF8EEE77AC823F0EEE77AED
:100D600093FBF5F3B7EE007ADBB20F2BF4EEC77A04
:100D700028BF0F23F1EE10FA84F86E3DC2F8C4507C
:100D80000EDCD8ED017ADFED166A9FED167A77EE6C
:100D9000E67AF0EEE77AF4EEC77AF1EE10FA0BDDC0
:100DA0000D48FFF745FF104AA4F862744FF49663AC
:100DB000C8F80420A4F86034002384F8E83DBDE8B6
:100DC000F08104F27440FFF7FDFE04F58C6884F8AE
:100DD000A864BAE7B41C002014210020E812002007
:100DE000CDCCCC3D0AD7233CCDCCCC3D0C4B93F89D
:100DF000492D12B1C3F84C0D00B9704730B4094AFF
:100E0000094803F58264002103F214434FF0FF45C3
:100E1000A2F8DC1882F8DE182560186030BC704734
:100E2000B41C0020F0010020000080FF0D4B93F85F
:100E3000492D12B1C3F8500D00B9704730B40A4AB9
:100E40000A4841F2B4150021515341F2B6154FF052
:100E5000FF44515503F5826203F214431460186095
:100E600030BC7047B41C0020F0010020000080FF5F
:100E7000284B93F8492D02B970470028FCD070B474
:100E800003F60442D16854681568056044608160C7
:100E900093F8191C017303F6C4118C6ACE6A0D6BAA
:100EA000D16A0461946A126B42628561C4614661D1
:100EB0000162194A93F83D1C80F8281093F83E6CA3
:100EC000D3F8545D14781179137A80F8356085630E
:100ED00080F8294080F82D1080F83130547851790D
:100EE000557A80F82A400023947880F82E10917962
:100EF000927A80F8325080F82B4080F82F1080F8DA
:100F0000332080F82C3080F8303080F8343070BCDA
:100F1000704700BFB41C0020F0010020000000005A
:100F20000A490B4A2DE9F84F0B68012023F0010311
:100F30000B60134610601D68002DFCD1054B064A5E
:100F40001A601A68054B9A420AD0FEE7002000E0BA
:100F50000830024000300240C2A507F4CDB5E8B524
:100F6000EF4CDFEDF07AF04EDFEDF06AC4F84C5D47
:100F70004FF001099FEDE05B9FEDE11B9FEDE22B40
:100F80009FEDE33B0FF2903BDBE900ABC4F8505D13
:100F900084F8499D07F03EFD41F2B41041F2B611CC
:100FA000B7EE007A06F6E8080A223552755488ED45
:100FB000025B88ED041B88ED062BC8E908AB88EDC1
:100FC0000A3B88ED827A86F8E028C8ED837AC8ED7E
:100FD000847AC4F81854C4F82454C4F83054C4F8BB
:100FE0001C5484F82054C4F8285484F82C54C4F8B1
:100FF000345484F8385407F00DFD04F60C3386EDB4
:10100000065BDFEDCB4A9FEDCB5ADFEDCB5ADFF825
:1010100048C3CA48CA49CB4A86ED867A04F6CC0E44
:1010200004F6044786ED081B86ED0A2BB2EE046A2F
:10103000C6E90CAB86ED0E3B4FF0020A83ED217A38
:1010400083ED257A83ED297AC6ED877AC6ED887A15
:10105000C3ED1E7AC3ED1F7AC3ED207AC3ED227A69
:10106000C3ED237AC3ED247AC3ED267AC3ED277A44
:10107000C3ED287AA6F8DC5886F8DE5886F80C907E
:101080004FF0013BC4F83C54C4F84854C4F85454DD
:10109000C4F8405484F84454C4F84C5484F8505470
:1010A000C4F8585484F85C54C3ED2A7A83ED2D7A41
:1010B00083ED317A83ED357A83ED397A83ED3D7AAC
:1010C00083ED0F7A83ED137A83ED177AC3ED2B7AD4
:1010D000C3ED2C7AC3ED2E7AC3ED2F7AC3ED307AAF
:1010E000C3ED327AC3ED337AC3ED347AC3ED367A89
:1010F000C3ED377AC3ED387AC3ED3A7AC3ED3B7A64
:10110000C3ED3C7AC3ED107AC3ED117AC3ED127AC8
:10111000C3ED147AC3ED157AC3ED167AC3ED187AD0
:10112000C3ED197AC3ED1A7AC3ED1B7AC3ED1C7AAD
:10113000C3ED1D7A4FF40073C4F82CCCC4F8300C06
:10114000C4F8341CC4F8382CC8ED287AC8ED297AC4
:10115000C8ED2A7A87ED087A04F6C418C7ED004A6C
:1011600087ED015AC7ED025AC7ED036A87ED046A9D
:101170008EED217A8EED257A8EED297ACEED1E7ACE
:10118000CEED1F7ACEED207ACEED227ACEED237A07
:10119000CEED247ACEED267ACEED277ACEED287AE2
:1011A000A4F83C3CC4F81C9C84F8289C84F83E5C61
:1011B000C4F818BC84F820ACCEED2A7A8EED2D7AD6
:1011C0008EED317A8EED357A8EED397A8EED3D7A6F
:1011D0008EED0F7A8EED137A8EED177ACEED2B7A97
:1011E000CEED2C7ACEED2E7ACEED2F7ACEED307A72
:1011F000CEED327ACEED337ACEED347ACEED367A4C
:10120000CEED377ACEED387ACEED3A7ACEED3B7A26
:10121000CEED3C7ACEED107ACEED117ACEED127A8B
:10122000CEED147ACEED157ACEED167ACEED187A93
:10123000CEED197ACEED1A7ACEED1B7ACEED1C7A70
:10124000A4F8FC39404BC4F8ECC9C4F8F009C4F860
:10125000F419C4F8F829C4F8D839C6ED2C7AC6EDCB
:101260002D7AC6ED2E7AC8ED004A88ED015AC8EDF8
:10127000025AC8ED036A88ED046A88ED087ACEED5B
:101280001D7AC4F8DC9984F8E89984F8E0A984F818
:10129000FE5901F011FD01F0E7FE4FF07F56DFF837
:1012A000BCC02A482A492B4A264BDFF8B4E0C8EDD7
:1012B000036AC7ED036A84F8FDA984F8FE5984F82F
:1012C0003DAC84F83E5CC4F819BCC4F8D9E9C8F850
:1012D00000C0C7F800C0C8F804607E60C8F82800E5
:1012E000B862C8F82C10F962C8F830203A63C8F820
:1012F00034307B63BDE8F88F00000060AB6CC73F03
:1013000000000020405AC53F00000000B7DFBF3F8B
:1013100000000060ED1F9F3F000000C05E87B23FED
:10132000B41C002000000000F001002083C02A3F10
:101330008195633F21B02A40CFF7133F27A0093A98
:101340000742B239CDCCCC3D0101000117B7513A6B
:101350003480373A3480373B282C71396666663FD3
:1013600001000101000000002DE9F04F2DED0A8B76
:10137000484D95F8493D95B023B915B0BDEC0A8BA1
:10138000BDE8F08FD1ED034A0F68D1ED047AD1EDBD
:10139000055A8B6891ED065A91ED074A91ED086A5E
:1013A00092ED009A05F60C3605F6CC08044648681E
:1013B000D5F8501DC6ED064AF760C8F80C7086EDEA
:1013C000095AC8ED064A88ED095AC6ED077A306118
:1013D000C8F8100086ED0A4AC8ED077A88ED0A4A77
:1013E000C6ED085A7361C8F8143086ED0B6AC8ED73
:1013F000085A88ED0B6A002940F0FA8105F5446728
:10140000D5F84C3D002B49D1234EB369F269B96937
:10141000A364FB69E264E1603A6A316A2361736A3A
:1014200021656365796AD6F894306261F268A161DA
:10143000D6F8A010E263A365FA68D7F89430616625
:10144000D7F8A0102260E3613269D6F89830E365DE
:10145000A1622264D6F8A4203B69D7F89810A2664E
:10146000D7F8A42063607369D6F89C50D6F8A8001A
:101470002162E2627969D7F89C206364D7F8A830CA
:1014800023632566E066A160626215B0BDEC0A8B3D
:10149000BDE8F08FB41C0020B426002095F9433439
:1014A00098ED070A95F95B2498ED063A98ED086ADD
:1014B000D8ED0A6A98ED092A95F8FD990AEE103AD6
:1014C00095F9423405EE103A95F9443405EE903A18
:1014D00095F93D34B8EECAAA07EE903A95F9403432
:1014E00009EE902AB8EEC55A95F93C242AEE00AAD6
:1014F00007EE103A95F95534A3EE05AA0BEE102A23
:1015000095F93F2408EE103A95F95834F8EEE55A6B
:1015100000EE902A95F9542408EE903A002308939F
:1015200001EE102A099395F957240A93A6EE25AAED
:101530000C930D930E9395F95634D8ED0B5A8DED0F
:1015400004AA01EE902A04EE903A95F93E2495F90A
:101550005934F7EE00AA03EE902A05EE103A95F9F9
:101560004124CDED0BAACDED0FAA95F95A34F8EE32
:10157000E77AB8EEC77AB8EEC88AF8EEE88A02EEE3
:10158000903AF8EEE99AB8EECBBA28EE268A68EEE1
:10159000A68A67EE807A27EE007AF8EEE00AB8EEC7
:1015A000C11AF8EEE11A69EEA69A95F95C34F8EEE4
:1015B000E22AEBEE037A04EE102AA3EE207AA1EEE3
:1015C000028AE2EE218A06EE903AE2EE229A844BFB
:1015D000F8EEE33AB8EEC44AF8EEE44AB8EEC55A7B
:1015E000F8EEE66AE3EE867A1B7BA6EE047AA4EEBA
:1015F000A58AE5EE858AE5EEA69AF1EE47BAB1EE48
:10160000488AF1EE688AB1EE67BACDED02BA8DED87
:10161000068ACDED058ACDED079A8DED03BAFBB1B3
:1016200067EEA77AE7EE077AEAEE0A7A17EE900AF3
:10163000FFF779F811F04AFFFFF7B8F80CEE100A3F
:10164000FFF771F864A3D3E90023FEF7C2FF002877
:1016500000F06982CDED02BA8DED03BA8DED04AADA
:10166000B9F1000F00F0578207EE909AB8EEE77AD2
:10167000F7EE006AC6EE877A4A4668EEA78A28EE39
:10168000278A69EEA79A95F8E039D8ED0C6A98EDAB
:101690000D7AD8ED0E7A95F8DC090133DBB276EEDF
:1016A000A88A37EE088A77EEA99AB3FBF2F102FB1B
:1016B000113385F8E039C8ED0C8A88ED0D8AC8ED44
:1016C0000E9A002840F038820DF1300A454A02F1A6
:1016D0004C061146A2F1100006F0ECFDA6F17C02CA
:1016E0001146504606F0E6FD06F11802A6F19C01EF
:1016F000A6F14C0006F0DEFD06F118021146A6F137
:101700007C0006F0D7FDD6ED078A96ED069A96ED99
:10171000088AD6ED099A28EEA87AA9EE097AA8EEE9
:10172000087AA9EEA97A17EE100AFEF7FCFF11F06D
:10173000CDFEFFF73BF807EE900AB7EE007AC7EE52
:10174000277A95F8E839012B27EE899A67EEA88A5F
:1017500027EE888A67EEA97A86ED069AC6ED078A93
:1017600086ED088AC6ED097A00F0AF82DFF87CB01A
:1017700095F8FE190191ABF10C03ABF19402CDF891
:1017800000B0ABF1880002A906F0D4FD95F8FC2961
:10179000002385F8DE39930709D495F8E019B1FBE9
:1017A000F9F309FB131919F0FF0F00F0ED810E4A50
:1017B0005046114606F07EFD95F8FE39B269012BC0
:1017C0007FF423AED6ED087AF369B361F1EE677A60
:1017D000F261C6ED087A18E68DEDB5A0F7C6B03E09
:1017E000F001002068260020282600205427002031
:1017F00095F9193495F9202495F83D9C06EE903A18
:1018000095F91C3407EE103A95F9343408EE903A05
:1018100095F9313408EE103A95F9183403EE903A00
:1018200095F91F3409EE903A95F937340AEE103ADB
:1018300095F91B3400EE903A95F9333401EE103AE5
:1018400095F9303401EE903A95F91A3403EE103AD6
:1018500095F91E34F8EEE66A02EE103A95F9363440
:1018600066EEA76AB8EEC77AF8EEE99AF8EEE33AC0
:1018700002EE903A95F91D3427EE277A69EEA79A81
:10188000F8EEE88AF0EE667AB8EEC88AB8EECAAA30
:10189000E3EEA47A03EE903A95F9353468EE848A43
:1018A00028EE048A2AEE04AAB8EEC11AF8EEE11A6C
:1018B000F8EEE22A04EE103AF8EEE00A95F9323436
:1018C000B8EEC22AE1EE058AA1EE858AA2EE85AACB
:1018D00005EE102A95F93824A0EEA47AE2EE249AB7
:1018E00004EE903A06EE902AB8EEC33AF8EEE33AE8
:1018F000B8EEC44AF8EEE44AB8EEC55AF8EEE66A25
:10190000E5EE837A9A4AA5EEA37A00230893E6EEE1
:10191000048A09930A93A6EE248A0C930D93E5EEAC
:10192000859A0E93A6EE26AAF7EE00BAF1EE67AA04
:10193000B1EE47BAF1EE688AB1EE488ACDED049A6D
:10194000CDED03AA8DED02BACDED058A8DED07AA86
:10195000CDED0BBACDED0FBA8DED068A92F8E038D9
:10196000EBB167EEA77AE7EE077AE9EEA97A17EE10
:10197000900AFEF7D8FE11F0A9FDFEF717FF07EE5B
:10198000900ACBEEA77A2BEE27BA6AEEA7AA69EEE9
:10199000A79A8DED02BACDED03AACDED049AB9F167
:1019A000000F00F0BC8007EE909AB8EEE77AF7EEF1
:1019B000006AC6EE877A4A4668EEA78A28EE278A2A
:1019C0002AEE27AA95F8203CD6ED0C6A96ED0D7A02
:1019D000D6ED0E7A95F81C0C0133DBB276EEA88AB0
:1019E00037EE088A37EE8AAAB3FBF2F102FB113315
:1019F00085F8203CC6ED0C8A86ED0D8A86ED0EAA90
:101A0000002840F0A7800DF1300A5A4A02F14C0735
:101A10001146A2F1100006F04DFCA7F17C02114620
:101A2000504606F047FC07F11802A7F19C01A7F108
:101A30004C0006F03FFC07F118021146A7F17C00AC
:101A400006F038FCD7ED078AD7ED069A97ED088A9D
:101A500097ED09AA28EEA87AA9EEA97AA8EE087A45
:101A6000AAEE0A7A17EE100AFEF75DFE11F02EFDBF
:101A7000FEF79CFE07EE900AB7EE007AC7EE277AD3
:101A800095F8283C012B67EEA99A67EEA88A27EE05
:101A9000888A67EE8A7AC7ED069AC7ED078A87EDCE
:101AA000088AC7ED097A00F0B781DFF8D8B095F859
:101AB0003E1C0191ABF10C03ABF1940202A9CDF8ED
:101AC00000B0ABF1880006F035FC95F83C2C002303
:101AD000910785F81E3C09D495F8201CB1FBF9F359
:101AE00009FB131919F0FF0F00F0F680224A504647
:101AF000114606F0DFFB95F83E3C012B7FF480ACED
:101B0000D7ED087ABA69FB69BB61F1EE677AFA61D1
:101B1000C7ED087A74E4012285F8FD29B3E50122B6
:101B200085F83D2C4EE7CAEE8C7A6BEEA7BA2BEE09
:101B300027BA2AEE27AA8DE5104B0DF1300AB0EE38
:101B4000490AA3F10C021846CDF800A005A900F03F
:101B50009BFDBBE50A4B0DF1300AA3F10C021846C0
:101B6000CDF800A0B0EE490A05A900F08DFD4CE7C4
:101B7000F0010020A828002068280020F825002077
:101B80003828002094290020D8F88830D8F88C0014
:101B9000D8F89010C8F8983042F00102D8F8943084
:101BA000C8F89C0085F8FC29504610AAC8F8A01077
:101BB000ABF59671C8F8A43006F07CFB08AAABF52B
:101BC000A671ABF5867006F075FB08AA114610A841
:101BD00006F070FB9DED099ADDED089ADDED0A8AAD
:101BE0009DED0B8A69EE097AE9EEA97AE8EEA87A0A
:101BF000E8EE087A17EE900AFEF795FD11F066FC04
:101C0000FEF7D4FD95F8FD3998ED336AD8ED326AC8
:101C1000D8ED344AD8F8AC10D8F8B020C8F8BC10C9
:101C200007EE103AB8EE477AB7EE005AC5EE077ADB
:101C3000D8F8A830C8F8B830D8F8B430C8F8C02000
:101C4000C8F8C43007EE100AC5EE075A27EE866AB8
:101C500067EEA66A26EE067A67EEA47AA6EEA67A64
:101C600069EEA59AA7EEA77A29EE259A68EEA58ACD
:101C700028EE258AB4EEC57AF1EE10FAC8ED1E9A68
:101C800088ED1F9AC8ED208A88ED218A88ED376A91
:101C9000C8ED366AC8ED387A00F1C580002000230F
:101CA0004FF07E52C8F8E400C8F8A830C8F8AC304D
:101CB000C8F8B030C8F8E830C8F8EC30C8F8F030F0
:101CC000C8F8B420C8F8F42076E5002386ED097A38
:101CD000B361F361336249E5D6F88830D6F88C00F9
:101CE000D6F89010C6F8983042F00102D6F8943039
:101CF000C6F89C0085F83C2C504610AAC6F8A010E7
:101D0000ABF59671C6F8A43006F0D4FA08AAABF584
:101D1000A671ABF5867006F0CDFA08AA114610A898
:101D200006F0C8FADDED098ADDED089A9DED0A8A14
:101D30009DED0BAA68EEA87AE9EEA97AE8EE087A9A
:101D4000EAEE0A7A17EE900AFEF7EDFC11F0BEFB00
:101D5000FEF72CFD95F83D3CD6ED335A96ED326AF0
:101D6000D6ED344AD6F8AC10D6F8B020C6F8BC1080
:101D700007EE103AB8EE477AB7EE005AC5EE077A8A
:101D8000D6F8A830C6F8B830D6F8B430C6F8C020B7
:101D9000C6F8C43007EE100A85EE077A67EEA55A3A
:101DA00027EE866A65EEA56A67EEA47AE6EE066A15
:101DB00067EE299AE7EEA76A67EE288A27EE088A77
:101DC000F4EEC56A27EE0A7AF1EE10FAC6ED1E9A15
:101DD000C6ED1F8A86ED208A86ED217AC6ED375A38
:101DE00086ED366AC6ED387A28D4002000234FF0FD
:101DF0007E52C6F8E400C6F8A830C6F8AC30C6F883
:101E0000B030C6F8E830C6F8EC30C6F8F030C6F8A6
:101E1000B420C6F8F4206EE6002387ED097ABB6192
:101E2000FB613B6241E675EE477A17EE900AFEF7DA
:101E30007AFC11F04BFBFEF7B9FC30E775EE667AE1
:101E400017EE900AFEF76FFC11F040FBFEF7AEFCB8
:101E5000CCE700BFF8B52F4B93F8492D02B9F8BD78
:101E60000028FCD003F6C412846806684568D46074
:101E7000017B83F8D919D0F810E0D0F814C0876935
:101E80001763C2F828E0C2F82CC090F8287083F8D5
:101E9000FD7990F835C083F8FEC983F8191C03F664
:101EA000044116605560026AD0F81CE0CA62426ABA
:101EB00083F83ECC83F83D7C876BC1F828E00A6349
:101EC000154A0E604D60CC60C3F8547D90F82930FF
:101ED000137090F82DE090F82A7090F82E6090F82A
:101EE000325090F82B4090F8333090F831C090F891
:101EF0002F1082F804E057705671557294709372E7
:101F000082F808C0917100F0D7FEBDE8F84001F0FA
:101F1000ABB800BFB41C0020F00100202DE9F04355
:101F2000C14E2DED028B96F8495D8BB025B90BB0F3
:101F3000BDEC028BBDE8F083044692ED008A002BD5
:101F400000F0D780B94ACF68D1F800E00D69D1F828
:101F500018C09761A2F51070C2F80CE087614F6855
:101F6000C0F80CE0D1F81CE0C2F824C0C0F824C0CE
:101F7000D1F814C017610761D6F8547DD561C561E9
:101F80008D68096A5561C2F828E0C2F820C0D162A4
:101F9000C0F828E0C0F820C04561C162D6F84C2DD9
:101FA00087B196F83C1CCD0703D496F8FC19C807F6
:101FB00023D59F48D0F8C010002940F39C800139F8
:101FC000C0F8C010002A00F08E8096F8FC29D107D6
:101FD00040F189801846B0EE480A019301F0ACFC4C
:101FE000D6F8501D019B41B196F83C2CD20704D580
:101FF0001846B0EE480A01F00FFA8E4DEA69AF6953
:10200000D5F85C02D5F85812E160A764D5F86012E3
:102010002F6AE26420616A6AD5F86402276561610B
:10202000EF68D5F84C12A061D5F894006265D5F838
:10203000A020E763D5F8D472A065D5F8E00221604E
:1020400062662969D5F89820E265E7612164A0629B
:10205000D5F8A400D5F85022D5F8D872D5F8E412F6
:10206000A066D5F8540262606A69D5F8E832276242
:10207000D5F89C70E162D5F8A8106264D5F8DC222E
:102080006262A060E166236305F54F7105F5137088
:1020900003AA276606F0C2FB039BA36303AA05F10C
:1020A000FC0105F10C0006F0B9FB039A96F8FE3925
:1020B000626704F13C0104F1580204F1480000F0A9
:1020C0006BFB96F83E3C84ED1C0A04F11C02214691
:1020D00004F10C0000F060FB84ED0D0A0BB0BDECC8
:1020E000028BBDE8F083D6F8501D00297FF47CAF49
:1020F00083E706AB26E7D6F858CDD6F8501D0CF18D
:10210000010E69B307EE90EAF8EEE77AB7EE007ACF
:1021100087EE276ADFF828914748C846B8EC017A6D
:10212000D0ED014A90ED025A90ED004AD8ED006AD8
:10213000D9ED027A05EE90CAF8EEE55AA5EE847A5A
:10214000E5EEA46AE5EE857A66EE866A27EE067A03
:1021500067EE867AC0ED016A80ED007AC0ED027A02
:10216000002A71D007EE90EAF8EEE77AB7EE007A2F
:10217000C7EE275A3048DFF8CC90C6F858ED07462E
:10218000C846054608370435BEF5FA7F07EE90CA03
:10219000F8EC016A97ED005A99ED027AD5ED004A04
:1021A00090ED004A98ED006AF8EEE77AA7EE857A9E
:1021B000E7EE846AA7EEA46AF0EE477A26EE256A77
:1021C00026EEA57A67EEA57A85ED006A80ED007AA5
:1021D000C7ED007A7FF4F9AE002946D0F0EE466AEA
:1021E000B0EE677AD0ED007A1449B6EE006A66EE7A
:1021F000866A27EE067A67EE867AC1ED0B6A81ED74
:102200000C7AC1ED0A7A82BB0021D6F84C2D016010
:10221000002029603960C6F8580DC6F8540D002A10
:102220007FF4D3AE5FE700BFB41C0020C0270020BE
:10223000E8120020B4260020102A0020B828002030
:10224000DC0E002004060020BEF5FA7FC6F858ED2B
:102250007FF4C9AE1048051D00F108070029D3D04E
:10226000D5ED006A97ED007ABCE7D5ED006A97EDF1
:10227000007AD0ED007A094AB6EE006A66EE866A08
:1022800027EE067A67EE867AC2ED0B6A82ED0C7A4B
:10229000C2ED0A7AB8E700BF102A00207826002095
:1022A0002DE9F04F2DED108BBBB0DFF8CCE39DF89E
:1022B000605114959DF8685115959DF86C511695CF
:1022C0009DF8705117958246884693461D46BEE894
:1022D0000F000DF17C0CACE80F009EE80300699E36
:1022E000CDED180A8CE80300DDE95601F0EE40BAA6
:1022F0008DED191AB0EE61EAB0EE42BAF0EE629AD4
:10230000B0EE43AAF0EE63AAFEF750FA96F8CC3886
:10231000549C9DF86491649F0CEE100A23B900222E
:102320000123326086F8CC38DFEDC77AC7EEAB7A8E
:1023300017EE900AFEF7F7F911F0C8F8FEF736FA33
:102340009FEDC25A95ED016AD5ED007AD5ED026A8E
:102350009FEDBF4A9DED201ADDED210ADDED225AE9
:10236000DDED234A26EE056A07EE100A67EE857A50
:1023700066EE856A85ED016A9DED246AC5ED007AF9
:10238000C5ED026A84EE078A27EE01FA67EE20EABD
:1023900067EE258A67EE24FA27EE06DAB9F1040F14
:1023A00006D8DFE819F0390146012E0105001001B9
:1023B000DFEDA87ADFEDA8CA69EEA79A2AEE27AA70
:1023C0006AEEA7AA69EE8C9A2AEE0CAA6AEE8CAA8B
:1023D000F6EE00DA00220023DDE95E0196ED009AB8
:1023E000FEF748F968B1B5EEC09AF1EE10FA40F385
:1023F000EF80F3EE047AB4EEE79AF1EE10FA40F1D2
:10240000E780F7EE007A79EE277A9FED949A9FEDB8
:10241000947AC6ED007A67EE897A6BEE2F4AF4EE75
:10242000C77AF1EE10FAB8BFF0EE477A88EE275A75
:102430009FED8C6A6DEEA85A27EE8F1A67EEAE0AF2
:1024400064EEA74A2DEE066A94ED0A7AD8ED017A79
:1024500094ED093A94ED054AD4ED036AD8ED003ABB
:10246000D4ED022ACDED374A77EEC77A94ED047A9F
:10247000D4ED074A8DED386A73EEC33A67EEA66A6B
:1024800094ED003ACDED345A27EE877A67EE847AE0
:1024900094ED014ACDED355AE3EE236A2B461AAD91
:1024A00094ED0B3ACDED365AA3EE847A50460DF1F9
:1024B000B80A98ED024AD4ED085A8DED255A34EE4B
:1024C000436AE2EEA37ADFF8B4E1DFF8B4C194ED39
:1024D000064A8DED265AA4EE867A25AC5A46E5EEDC
:1024E000867ADFF8A081E6EE046A8DED1D7AB7EEFC
:1024F000087A2BEE07BACDED1C6A8DED2E1A8DED04
:102500002F1A8DED301ACDED310ACDED320ACDED19
:10251000330ACDED1E7A8DED39BA8DED275A12961C
:10252000689E11969DED607B679E1096669ECDF825
:102530000C908DED087B9DF854908DF868909DED82
:102540005E7BCDE90E76639E9DF858900C96629E58
:10255000149904958DF869900B969DF85C90559EA2
:1025600002911BAD8DED067BB0EE4C2AF0EE6B1A9E
:10257000B0EE6A1AF0EE4A0AB0EE690A1CA9CDE97B
:1025800000A4CDED28CACDED29CACDED2ACA8DF81B
:102590006A900A960D95CDF8ACE0CDF8B4C0CDF8B0
:1025A000B08001F0A1FC2146629805F019FE659A01
:1025B000FB6813603B6953607B6993603BB0BDEC83
:1025C000108BBDE8F08FDFED28CAF7EE00DA01E7E7
:1025D000DFED267A9FED236A3EEE27EADDED197ADC
:1025E00027EE8F1ADDED187A0023336067EEAE0A0E
:1025F0006DEEA85A6BEE2F4A88EE0E5A2DEE066A43
:1026000022E769EE8C9A2AEE0CAA6AEE8CAADFED1C
:1026100018CAF1EE04DADDE6DFED167ADFED0ECA58
:1026200069EEA79A2AEE27AA6AEEA7AAF7EE00DAC1
:10263000D0E669EE8C9A2AEE0CAA6AEE8CAADFED3F
:102640000ACAF7EE00DAC5E66F12033C35FA8E3C93
:102650004260653B0000C8426F12833ACDCC4C3DCE
:10266000CDCC4C3E3333333FA69BC43ABD37863581
:10267000ACC52737CDCCCC3DA03A0108A69B443B46
:1026800052499D3A0AD7233C70B592ED016A92ED0A
:10269000007AD2ED026AD1ED027A2DED048BD1EDF4
:1026A000018A9FED3C8A91ED009A089D20EE088AF0
:1026B00078EEC68A39EE479A68EE888A29EE089A3B
:1026C00028EEA87A77EEE67AA9EE097A06461C4645
:1026D00027EE888AF0EE477AE8EE087AF5EE006A8F
:1026E00067EEA67AB7EE007AF4EEC77AF1EE10FA4A
:1026F00045D40020B6EE000A29EE009A68EE808AE2
:1027000028EE008A2246E860314685ED009AC5ED44
:10271000018A85ED028A284605F0CCFDD4ED028AB7
:1027200094ED019A94ED038AD4ED009A68EEA87AAC
:10273000E9EE097AE8EE087AE9EEA97A17EE900A4E
:10274000FDF7F1FF10F0C2FEFEF730F807EE900A39
:10275000B7EE007AC7EE277A69EEA79A29EE279A94
:1027600068EEA78A28EE278AC4ED009A84ED019AC4
:10277000C4ED028A84ED038ABDEC048B70BD77EE54
:10278000677A17EE900AFDF7CEFF10F09FFEFEF776
:102790000DF8AFE735FA8E3C2DE9F047DC4D2DED15
:1027A0000A8B92ED01BAD2ED00AA92ED02AAD0ED09
:1027B00001BA90ED00CAD0ED02CA90ED039AD5F8A7
:1027C00020488A46B0EECB8AF0EEEA8AF0EECA9A4A
:1027D000002B45D118EE100AFDF7A5FFB4EEE88AEC
:1027E000F1EE10FA06460F4640F1F680F4EEE98A63
:1027F000F1EE10FA40F3F08018EE900AFDF793FF27
:10280000BFA3D3E900238046894630463946FDF709
:10281000E4FDF5EEC0AAF1EE10FA02460B46404682
:10282000494640F30A82FDF70AFF70B119EE900A9B
:10283000FDF779FFB2A3D3E90023FDF7CEFD4246B1
:102840004B46FDF7C6FE002848D1052C00F2248235
:10285000DFE814F02001980047007E0147002001C6
:1028600018EE900AFDF75FFFB4EEE88AF1EE10FA79
:10287000F1EE6CCA06460F464FDDB4EEE98AF1EE82
:1028800010FA4ADD18EE100AFDF74DFF9CA3D3E9BC
:1028900000238046894630463946FDF79EFDB5EE59
:1028A000C0BAF1EE10FA02460B464046494640F3E4
:1028B000DD81FDF7C4FE002800F0198119EE900AB1
:1028C000FDF731FF8EA3D3E90023FDF786FD4246D5
:1028D0004B46FDF77EFE002800F009810423C5F871
:1028E00020389AED000ADFED8B7A30EE270ADFED13
:1028F0008A7AB4EEE70AF1EE10FAA8BF30EE670A62
:10290000B5EEC00AF1EE10FA03D5DFED837A30EEB2
:10291000270ABDEC0A8BBDE8F087F4EEE98AF1EEF8
:1029200010FA40F3BA8018EE100AFDF7FCFE74A30B
:10293000D3E90023FDF751FDF5EEC0AAF1EE10FA40
:1029400032463B4640F34581FDF743FE002800F048
:10295000CE8019EE900AFDF7E6FE69A3D3E90023C5
:10296000FDF73BFD32463B46FDF733FE002800F005
:10297000BE80F0EE6B7A0123F0EE4CBAC5F8203839
:10298000B0EE67CA6BEEEB7AECEE0C7AECEEEC7A1A
:10299000E9EE097A2CEE899A17EE900AABEE8C9A42
:1029A000FDF7C1FE79EE097A04460D4617EE900A4E
:1029B000FDF7B9FE22462B460FF073FB52A3D3E975
:1029C0000023FDF70AFD0022544BFDF700FDFDF743
:1029D000EDFE00EE100A8AE7B4EEE98AF1EE10FA95
:1029E00029DD18EE900AFDF79EFE45A3D3E90023EA
:1029F000FDF7F3FCB5EEC0BAF1EE10FA32463B46F5
:102A000040F38E80FDF7E5FD00283FF41EAF19EE80
:102A1000900AFDF788FE3AA3D3E90023FDF7DDFC19
:102A200032463B46FDF7D5FD00283FF40EAF0123AB
:102A3000C5F82038A6E719EE900AFDF774FE30A31A
:102A4000D3E900238046894630463946FDF7C5FC68
:102A5000B5EEC0AAF1EE10FA02460B4640464946D2
:102A600040F3D580FDF7EBFD00283FF4EEAE18EE05
:102A7000900AFDF758FE22A3D3E90023FDF7ADFC31
:102A800042464B46FDF7A5FD00283FF4DEAE00238D
:102A9000C5F820389AED000A29E719A3D3E90023E5
:102AA00030463946FDF799FC804619EE900A894672
:102AB000FDF739FEB5EEC0AA06460F46F1EE10FA54
:102AC0004046494632463B466CD5FDF782FD70B123
:102AD00018EE100AFDF727FE09A3D3E90023FDF73E
:102AE0007CFC32463B46FDF774FD0028CFD1F0EE6A
:102AF0004C7AB0EE6BCAF0EE67BAA6E6AFF3008090
:102B0000000000E051B8F63F00000020DCA54C407A
:102B1000B41C0020000034430000B4430080564041
:102B2000FDF757FD00283FF490AE19EE900AFDF72F
:102B3000FAFD5BA3D3E90023FDF74FFC32463B4689
:102B4000FDF747FD00283FF480AE0323C5F8203889
:102B50006BEEEB7AECEE0C7AECEEEC7AE9EE097ABD
:102B60002CEE899A17EE900AABEE8C9AFDF7DBFDFE
:102B700079EE097A04460D4617EE900AFDF7D3FD6B
:102B800022462B460FF08DFA49A3D3E90023FDF727
:102B900024FC0022444BFDF779FBFDF707FE00EE15
:102BA000100AA4E6FDF715FD0028A0D018EE100AC3
:102BB000FDF7B9FD3AA3D3E90023FDF70EFC324639
:102BC0003B46FDF706FD002891D00223C5F82038CA
:102BD00087E6FDF7FEFC002889D019EE900AFDF784
:102BE000A2FD2FA3D3E90023FDF7F7FB32463B46B6
:102BF000FDF7EFFC00283FF47AAFF0EE6B7A032389
:102C0000F0EE4CBAC5F82038B0EE67CAA0E7FDF781
:102C100016FD00283FF419AE18EE900AFDF783FD6B
:102C20001FA3D3E90023FDF7D8FB42464B46FDF72F
:102C3000D0FC00283FF409AEC7E7FDF700FD0028EF
:102C40003FF403AE19EE900AFDF76DFD14A3D3E92E
:102C50000023FDF7C2FB42464B46FDF7BAFC0028B5
:102C60003FF4F3AD0523C5F8203813E7FDF7E7FC83
:102C700000283FF43CAF19EE900AFDF754FD08A37D
:102C8000D3E90023FDF7A9FB42464B46FDF7A1FC23
:102C900000283FF42CAFE5E79FED040A39E600BFBA
:102CA000000000E051B8F63F0080564000000000F0
:102CB00000000020DCA54C40F0B47349734B087849
:102CC0000022A0F1420784B0172FC3F81C2483F818
:102CD0002024C3F81824C3F82424C3F83024C3F8EC
:102CE000282483F82C24C3F8342483F838240A7960
:102CF00098BF20308DF80400A2F14200172898BF39
:102D000020328DF808200A7AA2F14200172898BFD5
:102D100020328DF80C204A78A2F14200172898BF83
:102D200020328DF805204A79A2F14200172898BF79
:102D300020328DF809204A7AA2F14200172898BF64
:102D400020328DF80D208A78A2F14200172898BF12
:102D500020328DF806208A79A2F14200172898BF08
:102D600020328DF80A208A7AA2F14201172998BFF1
:102D700020328DF80E209DF80420643A132A0ED8D4
:102D8000DFE802F00ABA0D0D0D0D0D0D0D0DBE0D93
:102D90000D0D0DC20DC60DCAFF2283F81E249DF82D
:102DA0000520643A132A0ED8DFE802F00ABA0D0DA6
:102DB0000D0D0D0D0D0DBE0D0D0D0DC20DC60DCA67
:102DC000FF2283F81F249DF80620643A132A0ED8A8
:102DD000DFE802F00ABA0D0D0D0D0D0D0D0DBE0D43
:102DE0000D0D0DC20DC60DCAFF2283F820249DF8DB
:102DF0000820643A132A0ED8DFE802F00ABA0D0D53
:102E00000D0D0D0D0D0DBE0D0D0D0DC20DC60DCA16
:102E1000FF2283F836249DF80920643A132A0ED83D
:102E2000DFE802F00ABA0D0D0D0D0D0D0D0DBE0DF2
:102E30000D0D0DC20DC60DCAFF2283F837249DF873
:102E40000A20643A132A0ED8DFE802F00ABA0D0D00
:102E50000D0D0D0D0D0DBE0D0D0D0DC20DC60DCAC6
:102E6000FF2283F838249DF80C20643A132A12D8E4
:102E7000DFE802F00EBA1111111111111111BE117A
:102E8000111111C211C611CAF0010020B41C00209A
:102E9000FF2283F82A249DF80D20643A132A0ED8C5
:102EA000DFE802F00AB60D0D0D0D0D0D0D0DBA0D7A
:102EB0000D0D0DBE0DC20DC6FF2283F82B249DF80B
:102EC0000E20643A132A0ED8DFE802F00AB60D0D80
:102ED0000D0D0D0D0D0DBC0D0D0D0DC20DC80D1000
:102EE000FF2283F82C2404B0F0BC7047FF2283F843
:102EF000262404B0F0BC7047012283F818244EE762
:102F0000012283F81B244AE7FF2283F81B2446E7AB
:102F1000012283F81E2442E7FF2283F818243EE7AB
:102F2000012283F819244EE7012283F81C244AE782
:102F3000FF2283F81C2446E7012283F81F2442E77E
:102F4000FF2283F819243EE7012283F81A244EE772
:102F5000012283F81D244AE7FF2283F81D2446E757
:102F6000012283F8202442E7FF2283F81A243EE757
:102F7000012283F830244EE7012283F833244AE704
:102F8000FF2283F8332446E7012283F8362442E700
:102F9000FF2283F830243EE7012283F831244EE7F4
:102FA000012283F834244AE7FF2283F8342446E7D9
:102FB000012283F8372442E7FF2283F831243EE7D9
:102FC000012283F832244EE7012283F835244AE7B0
:102FD000FF2283F8352446E7012283F8382442E7AC
:102FE000FF2283F832243EE7012283F8242452E7AB
:102FF000012283F827244EE7FF2283F827244AE79B
:10300000012283F82A2446E7FF2283F8242442E79A
:10301000012283F8252452E7012283F828244EE771
:10302000FF2283F828244AE7012283F82B2446E76D
:10303000FF2283F8252442E7012283F8262404B0E6
:10304000F0BC7047012283F8292404B0F0BC70471B
:10305000FF2283F8292404B0F0BC7047012283F8D2
:103060002C2404B0F0BC7047F0B47349734B08785B
:103070000022A0F1420784B0172FC3F8402483F840
:103080004424C3F83C24C3F84824C3F85424C3F8A8
:103090004C2483F85024C3F8582483F85C240A791C
:1030A00098BF20308DF80400A2F14200172898BF85
:1030B00020328DF808200A7AA2F14200172898BF22
:1030C00020328DF80C204A78A2F14200172898BFD0
:1030D00020328DF805204A79A2F14200172898BFC6
:1030E00020328DF809204A7AA2F14200172898BFB1
:1030F00020328DF80D208A78A2F14200172898BF5F
:1031000020328DF806208A79A2F14200172898BF54
:1031100020328DF80A208A7AA2F14201172998BF3D
:1031200020328DF80E209DF80420643A132A0ED820
:10313000DFE802F00ABA0D0D0D0D0D0D0D0DBE0DDF
:103140000D0D0DC20DC60DCAFF2283F842249DF855
:103150000520643A132A0ED8DFE802F00ABA0D0DF2
:103160000D0D0D0D0D0DBE0D0D0D0DC20DC60DCAB3
:10317000FF2283F843249DF80620643A132A0ED8D0
:10318000DFE802F00ABA0D0D0D0D0D0D0D0DBE0D8F
:103190000D0D0DC20DC60DCAFF2283F844249DF803
:1031A0000820643A132A0ED8DFE802F00ABA0D0D9F
:1031B0000D0D0D0D0D0DBE0D0D0D0DC20DC60DCA63
:1031C000FF2283F85A249DF80920643A132A0ED866
:1031D000DFE802F00ABA0D0D0D0D0D0D0D0DBE0D3F
:1031E0000D0D0DC20DC60DCAFF2283F85B249DF89C
:1031F0000A20643A132A0ED8DFE802F00ABA0D0D4D
:103200000D0D0D0D0D0DBE0D0D0D0DC20DC60DCA12
:10321000FF2283F85C249DF80C20643A132A12D80C
:10322000DFE802F00EBA1111111111111111BE11C6
:10323000111111C211C611CAF0010020B41C0020E6
:10324000FF2283F84E249DF80D20643A132A0ED8ED
:10325000DFE802F00AB60D0D0D0D0D0D0D0DBA0DC6
:103260000D0D0DBE0DC20DC6FF2283F84F249DF833
:103270000E20643A132A0ED8DFE802F00AB60D0DCC
:103280000D0D0D0D0D0DBC0D0D0D0DC20DC80D104C
:10329000FF2283F8502404B0F0BC7047FF2283F86B
:1032A0004A2404B0F0BC7047012283F83C244EE766
:1032B000012283F83F244AE7FF2283F83F2446E7B0
:1032C000012283F8422442E7FF2283F83C243EE7B0
:1032D000012283F83D244EE7012283F840244AE787
:1032E000FF2283F8402446E7012283F8432442E783
:1032F000FF2283F83D243EE7012283F83E244EE777
:10330000012283F841244AE7FF2283F8412446E75B
:10331000012283F8442442E7FF2283F83E243EE75B
:10332000012283F854244EE7012283F857244AE708
:10333000FF2283F8572446E7012283F85A2442E704
:10334000FF2283F854243EE7012283F855244EE7F8
:10335000012283F858244AE7FF2283F8582446E7DD
:10336000012283F85B2442E7FF2283F855243EE7DD
:10337000012283F856244EE7012283F859244AE7B4
:10338000FF2283F8592446E7012283F85C2442E7B0
:10339000FF2283F856243EE7012283F8482452E7AF
:1033A000012283F84B244EE7FF2283F84B244AE79F
:1033B000012283F84E2446E7FF2283F8482442E79F
:1033C000012283F8492452E7012283F84C244EE776
:1033D000FF2283F84C244AE7012283F84F2446E772
:1033E000FF2283F8492442E7012283F84A2404B0EB
:1033F000F0BC7047012283F84D2404B0F0BC704744
:10340000FF2283F84D2404B0F0BC7047012283F8FA
:10341000502404B0F0BC70472DE9F04FF04C94F903
:10342000183494F9372494F91AA494F9207494F96F
:10343000369494F9386494F9261494F924E494F9B0
:1034400027C42DED0C8B0CEE103A94F9193407EECD
:10345000903A94F91B340BEE903A94F91C3406EE32
:10346000103A94F91D3400EE903A94F91F340CEEA2
:10347000903A94F91E34E7B001EE903A94F925346D
:103480000DF1600808EE103A0023C8E90033C8F8CF
:10349000083094F9283408EE903A94F9293404F667
:1034A0000C35D5ED092A95ED033A95ED061A95ED03
:1034B00007AAD5ED083AD5ED0A9A95ED0B4A95ED98
:1034C000049AD5ED054A06EE903A94F92B3405EEB0
:1034D000103A94F92A340AEE903A94F92C34B8EE62
:1034E000C55A02EE103A94F93434F8EEEAAA05EE21
:1034F000903A25EE095A94F93134A3EE2A5A8346BC
:1035000094F9300407EE103A0AEE900A94F9333435
:10351000B448B8EEC22AB8EEC77AA4EE825A90F840
:10352000E00817900BEE103A27EE297AF8EEEAAA97
:10353000B8EEC66AF8EEE55AAAEEA27A94F93234E9
:103540000AEE902A26EE0A6AF8EEEBBA65EEA95A60
:10355000B8EECBBAA1EE2B6A94F93524E2EE8B5A81
:10356000F8EEECBAB8EEEABAF0EE45CAF8EEE77A51
:1035700005EE109A67EE8A7A6BEE299A2BEE8AAAEC
:10358000F8EEE11AB8EEC55AA1EE21AAE2EE859A4C
:10359000F8EEE88A01EE902A05EE10CAB8EECCCA21
:1035A000F8EEE11AB8EEC55A68EE898AECEE017AB7
:1035B000E3EE058AE4EE215A05EE107A0AEE90AAAF
:1035C000B8EEC88A01EE903A02EE10EAF8EEEAAAE6
:1035D000F8EEC52A28EE098A05EE106AF8EEE00A30
:1035E000F8EEE11AB8EEC22AEAEEA37AA2EE038A56
:1035F000A3EEA06AB8EEC53AA1EE847A05EE101AE1
:10360000F8EEE66AB8EEC55AF0EE40DAA3EEA2AAEA
:10361000B1EE65BAF1EE47AAE4EE039AA5EE248A6C
:10362000E4EEA68AB1EE46CAF1EE67BAB1EE6CDA04
:1036300088B367EEA77AB7EE009AE6EE067AEAEE6E
:103640000A7A17EE900AFDF76EF80FF03FFFFDF7CC
:10365000ADF807EE900AC9EE277A28EE087A2CEE2C
:1036600027CAA8EEA87A6BEEA7BAACEEAC7A2AEE1F
:1036700027AA17EE100AFDF756F80FF027FFFDF7FF
:1036800095F807EE900AC9EE277A68EEA78A28EE29
:10369000278A2DEE27DA94F83C3C94F83D2C524EC4
:1036A000524FD5F884C0D5F87C90D5F880E0C5F8A5
:1036B00094C009EE102A43F00203AA6FC5F88820CF
:1036C00083F00103F822A6F59A7128A884F83C3CFF
:1036D000C5F88C90C5F890E0FCF7A9FDD7F8AC00D0
:1036E000D7F8B010D7F8B420DFED417ACDF8448098
:1036F000159706F1FA0EF0643165726506F1F9036B
:103700001FAA06F1F800A6F16C010DF16C09CDEDD0
:103710002FBA8DED30AA56ED03BA16ED0CAACDEDF9
:103720002B8A8DED2C8A56ED0E8A16ED0F8A8DEDC3
:1037300031BACDED32AA16ED04BA56ED05AACDED9B
:10374000339A8DED2ECA56ED0D9A8DED2DDACDF80A
:1037500050E0CDE912030F91C5ED0C7AC5ED0D7A5D
:10376000C5ED0E7A1092CDF8389056F81C0CFCF787
:10377000DAFFCDE90C0194F81E0CFCF7A8FFCDE9A7
:103780000A0194F81C3C94F81BCC94F81A2C08936A
:1037900094F8191C94F8183C56F82C0CB8EE499A79
:1037A000CDE9062CCDE90431FCF7BDFF29EE2D9AB9
:1037B0000DF5867E0DF1DC0CCDE90201F0EE6B3AE1
:1037C000B0EE4B3AF0EE6A2AB0EE4A2AF0EE691AF1
:1037D000B0EE681AF0EE480AB0EE490A34AB09E0E0
:1037E000B41C0020F0010020F4280020D80A00209A
:1037F000000000002EAA2BA94AA8CDE900CEFEF7B2
:103800004FFDBBF1000F0FD0D9F80020D9F80430DC
:10381000CBF80020CBF80430D9F80820D9F80C30C8
:10382000CBF80820CBF80C30D7F8E030C6F80031E0
:1038300094F83A3DD7F8B820C6F8FC20012BD7F809
:103840000821C6F8042155D0179B03F1FF3A5FFA0F
:103850008AFABAF1080F9CBF354B83F8E0A8DFED78
:10386000357A98ED006AD8ED016A98ED027A94F8FD
:10387000393D26EE275A66EEA75A67EE277A85ED80
:103880001B5AC5ED1C5AC5ED1D7A3BB194F8483D55
:10389000092B28D8013384F8483D01E084F8483DDD
:1038A000D7F8942094F83C3CD7F89810C6F8AC2090
:1038B000D7F89C20C6F8B010D7F8AC00C6F8B420F2
:1038C000D7F8B010D7F8B420C6F8C40083F00203CC
:1038D00084F83C3CC6F8C810C6F8CC2067B0BDECF4
:1038E0000C8BBDE8F08F86ED226AC6ED236A86ED6B
:1038F000247AD5E7D9F80C20D9F80430C5F884200B
:10390000C5F894200A4AD9F80000D9F80810EB67E6
:10391000C5F88C300023A867C5F88800C5F880106A
:10392000C5F8901084F8283C82F8E03897E700BF8B
:10393000F0010020E12E65422DE9F04FE64CE74F03
:1039400094F93D3407EE903A94F9403406EE903AFB
:1039500094F9583407EE103A94F955342DED088B4C
:1039600009EE903A94F93C343A7B01EE903A94F99E
:103970003F3402EE103A94F9573402EE903A94F93B
:10398000543403EE903A94F9433408EE103A94F923
:103990005B3408EE903A94F93E3404F6CC05D5ED4C
:1039A000074A95ED063A95ED0A6A95ED094A95EDB7
:1039B000085AD5ED0B5A00EE903AF8EEE77A94F9F2
:1039C000413467EEA47AF8EEE11A01EE103AF8EE0F
:1039D000E66A94F9423466EEA46AB8EEC22AE1EED1
:1039E000837AE5B00DF1580901EE903AB8EEC77A46
:1039F00094F9593427EE067AF8EEE22AE3EE026AE9
:103A0000804602EE103AF8EEE99A94F9563469EEDF
:103A1000869AF8EEE33AA4EE227A02EE903A94F90E
:103A20005A34E3EE849AB8EEC88A03EE903AF8EE80
:103A3000E88A94F9443428EE248A68EE868A04EEF3
:103A4000903AF8EEE00A94F95C34B8EEC11AF8EE58
:103A5000E11AB8EEC22AF8EEE22AF8EEE33A06EEF0
:103A6000103AE0EE857A0023C9E90033E5EE016AF9
:103A7000C9F80830A3EE218AA5EE827AE2EEA59A73
:103A8000E4EE238AF8EEE44AB8EEC66AF0EE40BAF5
:103A9000A5EE248AB1EE66BAF1EE67AAB1EE47AAA6
:103AA000F1EE699AE5EE868A002A00F0258167EE3C
:103AB000A77ADFF83CA2DFF83CB2E6EEA67AE8EEA1
:103AC000087A17EE900AFCF72EFE0FF0FFFCFCF7C9
:103AD0006DFE07EE900AB7EE007AC7EE277A2BEE5E
:103AE00027BA6AEEA7AA28EE278A94F8FD2994F847
:103AF000FC39A96FC5F8881009EE102A7849EA6FD9
:103B0000D5F88060C5F88C2043F00203F822D5F880
:103B100084C0C5F8906083F001038E1826A884F84D
:103B2000FC39C5F894C0FCF782FB06F59B7C306A33
:103B3000CDF850C0002306F59A7EA6F1300C06F2AF
:103B40003512CDF848E0CDF83CC01392CDF8449042
:103B50001DAA2B636B63AB636249CDF8ACA00DF17A
:103B6000640A2A9310928DED2CBACDED2DAA8DED1D
:103B70002E8A8DED2FAACDED309ACDED318ACDF87C
:103B8000A4B01591CDF838A0FCF7CDFDCDE90C011E
:103B900094F8DE0996ED0BBAD6ED0AAA96ED03AAC3
:103BA000D6ED029AD6ED018A96ED008AFCF78FFDDC
:103BB000B8EE499A94F8DC3994F8DAC994F8D9291E
:103BC00094F8DBE929EE2B9AD6ED0CBA0893CDE9EF
:103BD0000A0194F8D8393069CDE90432CDE906CE2E
:103BE000FCF7A1FD35AE0DF5827CCDE90201B0EE0A
:103BF000490AF0EE6B3AB0EE4B3AF0EE6A2AB0EEBC
:103C00004A2AF0EE691AB0EE681AF0EE480A32ABB2
:103C10002CAA29A948A8CDE9006CFEF741FBB8F110
:103C2000000F0FD0DAF80020DAF80430C8F80020CE
:103C3000C8F80430DAF80820DAF80C30C8F80820A0
:103C4000C8F80C30284BD7F8F020C3F8002194F8BE
:103C5000FA2AD7F8C810C3F8FC10012AD7F81811AF
:103C6000C3F8041119D1DAF80420DAF80060DAF8A0
:103C70000800DAF80C10EA67C5F88C200022AE675D
:103C8000C5F88860C5F88000C5F89000C5F88410B4
:103C9000C5F8941084F8E8293A73DFED147A99EDA9
:103CA000006AD9ED016A99ED027A94F8F92A26EEB4
:103CB000275A66EEA75A67EE277A85ED1B5AC5ED9F
:103CC0001C5AC5ED1D7AE2B194F8082B092A25D8B3
:103CD000013284F8082B16E0B41C0020F00100200B
:103CE0008025002000020020B4260020E12E65423D
:103CF000F30435BFF304353FDFF830A0DFF830B010
:103D0000F3E684F8082B94F8FC3983F0020384F876
:103D1000FC3965B0BDEC088BBDE8F08F83ED226AFD
:103D2000C3ED236A83ED247AEDE700BF333333BF5D
:103D30003333333F90ED047AD0ED007AD0ED086A4A
:103D400077EEC77A38B577EEE67ABFEE007AF4EE12
:103D5000C77AF1EE10FA2DED028B04460D4640F3C2
:103D6000BC80B7EE007A77EE877A17EE900AFCF700
:103D7000DAFC0FF0ABFBFCF719FD07EE100AD4EDEF
:103D8000057AD4ED075A94ED065A94ED026AD4ED03
:103D9000036AD4ED014A75EEE75AB6EE008AF5EEF5
:103DA000C05AFEEE007AF1EE10FA54BFF0EE485A17
:103DB000F0EE675A27EE257A36EE456A85ED007AF1
:103DC00094ED047A94ED005AD4ED085A37EE457A12
:103DD00076EEE46AB5EEC06A37EE657AF1EE10FA77
:103DE000F5EEC06AFFEE006A54BFF0EE488AF0EECE
:103DF000678AF1EE10FAB4EEE67A48BFB0EE678A51
:103E0000F1EE10FA66DDF7EE007A77EE277A17EE1C
:103E1000900AFCF788FC0FF059FBFCF7C7FC07EE93
:103E2000900A67EEA87AC5ED017AD4ED046A94EDA4
:103E3000007AD4ED087A37EE267AFFEE006A77EE44
:103E4000C77AF4EEE67AF1EE10FA40DDB7EE007ACA
:103E500077EE877A17EE900AFCF765FC0FF036FBD9
:103E6000FCF7A4FC07EE900A67EE887AC5ED027AAB
:103E700094ED047AD4ED007AD4ED086A77EE877A6F
:103E8000BFEE007A77EEA67AF4EEC77AF1EE10FA7A
:103E900016DDB7EE007A77EE877A17EE900AFCF718
:103EA00042FC0FF013FBFCF781FCBDEC028B07EE2C
:103EB000100AF6EE007A67EE277AC5ED037A38BD70
:103EC000BDEC028BDFED067AC5ED037A38BDDFED80
:103ED000047ACBE7DFED027AA5E79FED017A4EE7A2
:103EE00000000000000000002DE9F04F2DED108BC8
:103EF000CB4CADF2346D8E469046019027910B92DB
:103F000008930FCCB6AE0FC60FCC0FC60FCC9DF8E2
:103F1000A05628959DF8A456DDF8E0A60C950FC68E
:103F20002546C3AF55F8043B33600FCD0FC70FCD07
:103F30000FC70FCD04F1380C0FC7BCE80F00D0AE8F
:103F40000FC6BCE80F000FC6BCE80F000FC62A68FA
:103F5000DCF800303A6004F16C0733600FCFDDAD60
:103F60000FC50FCF0FC50FCF04F1A0060FC50FCEA1
:103F70003F682F6098AD0FC50FCE0FC596E80300C0
:103F800004F1C80685E803000FCEA2AD0FC50FCE21
:103F90000FC596E8030004F1F00685E803000FCE94
:103FA000ACAD0FC50FCE0FC596E8030004F58C76B7
:103FB00085E803000FCE5DAD0FC596E80700DDF87C
:103FC000D46685E8070004F59A7400250FCC357097
:103FD000DDF8D866CDED021A3570DDF8DC66357097
:103FE000DEED01DADEED008A9EED028A6DEEAD7A3D
:103FF00064ADE8EEA87A0FC5E8EE087A94E8070009
:1040000085E8070017EE900AB0EE40EAF0EE60EAAD
:10401000B0EE41FAF0EE42FAFCF785FB0FF056FAEB
:10402000FCF7C4FBD8ED01AA98ED00BA98ED02AAFE
:104030007C4B6AEEAA7A09EE900AEBEE0B7A1860D6
:104040000AF517730A93EAEE0A7AF7EE00CA17EE3A
:10405000900AFCF768FB0FF039FAFCF7A7FB09EEB2
:10406000100A8CEEA9CA98E807005AAB83E807004B
:104070000AF58C6319930DF5D763D3E90001CCEEF3
:10408000897A6CEE2DBA67EEAAAA68EE8C9A27EEB2
:104090008BBA2CEE08CA2AEE27AA2AEEABDACDEDAF
:1040A000578A8DED598ACDED58DACDED3E9ACDED9A
:1040B0003FBA8DED41BACDED42AA8DED40CA8DEDEE
:1040C00043AAFCF773FBABEE29DA9AF8CD4808EE69
:1040D000900A9FED558AACEE0ADA28EE888A002C09
:1040E00000F0BE8547AB09930AF5757312930AF287
:1040F000044313930AF5826314930AF2144315934D
:104100000AF5836316930AF21C431B930AF22443B5
:104110001C930AF585631D930AF22C431E930AF53E
:10412000866317930AF2344310930AF587631F934B
:104130000AF23C4311930AF588630D930AF2444353
:104140000E930AF5896318930AF24C430F930AF60B
:1041500098030AF581680AF20C4935930AF2844300
:10416000DFED324AD3ED006A199B9FED315AD3ED52
:10417000007ADFED305A9FED306A019B66EEA46A4B
:104180000AF2CC45E7EE856A0AF59E640FCB95ED01
:10419000007AD4ED007AE7EE256A0DF5D7640AF5CA
:1041A000916694ED003BE7EE866A0D9C8AED0E3B2E
:1041B00084ED008ACAEDF86AD6ED007A0AF2644707
:1041C00067EEA47AD7ED003A3A97E3EE857A0AF5DE
:1041D0009A650AF2F44C95ED004A9CED007AE4EE03
:1041E000257A0AF28C450AF58D670AF2D444E7EE87
:1041F000067A01940AF26C442B94CAEDF97A95ED93
:10420000007AD7ED003A3B9727EE247A0AF58E64C0
:10421000A3EE857A2C94019C099F94ED004A0DE051
:1042200020390108D82400200AD7A33CCDCCCCBD2E
:10423000CDCC4CBECDCCCC3DCDCC4C3EA4EE257AE5
:104240000AF59F6687E80F0096ED004A2B9DA4EEC5
:10425000067A0AF5926C0AF59B6E0AF2944B8AED87
:10426000FA7A9CED004AD5ED003A24EE244A0AF58C
:104270008F65A3EE854A20950AF2FC45DEED003AF3
:10428000A3EEA54A0AF2DC440AF5A062D5ED003A95
:104290002C9DA3EE864A0AF593630AF274460AF24D
:1042A000E44C8AEDFB4A9BED004AD5ED003ACDF88F
:1042B000BCC024EE244A0AF5A16CA3EE854ACDF8D1
:1042C000C8C00AF5946CD4ED003ACDF8B4C0A3EEA2
:1042D000A54A0AF27C4C0AF59C61D2ED003ACDF871
:1042E00084C0A3EE864A0AF59D6CCDF8C0C067EE87
:1042F000A73A8AEDFC4AD3ED007A96ED004A3C9647
:1043000067EEA47AE6EEA63A0AF20C5CCDF8CCC0D1
:10431000E4EE057A0AF2A44CCDF8B8C0F0EE636A78
:10432000D1ED003A0AF5906CE3EEA57A0AF29C47CB
:104330000AF20450CDF888C00AF5A2640AF2EC4CE7
:104340000AF50E76CDF8C4C03D9734942A9690EDC8
:10435000004A209D349BE4EE067A0AF580640AF553
:104360000571E7EE076A2991CAEDFD7AD7ED007A6B
:1043700095ED004A2F9D67EEA47A16EE900AE4EEC2
:10438000057AD5ED006A329DE6EEA57A95ED007AC4
:104390002D9DE7EE067ACAEDFE7AD5ED007A219DD5
:1043A00067EEA47A95ED004A309DE4EE057AD5EDEE
:1043B000006A339DE6EEA57A95ED007A2E9DE7EE34
:1043C000067ACAEDFF7A95ED008A229D9CED007A6F
:1043D000D5ED006AD3ED007A28EE248AA6EE858A10
:1043E000A7EE258AA7EE868A84ED008AFCF79BF962
:1043F0000FF06CF8FCF7DAF9DAEDFC7ADAEDFB6A2B
:104400009AEDFD7AA14967EEA77A0DEE900AE6EEE5
:10441000A67A0860E7EE077A17EE900AFCF783F9B0
:104420000FF054F8FCF7C2F9DAEDFF7A9AEDFE7A54
:10443000964B67EEA77A43F8040FE7EE077A3993B5
:104440000CEE900AE8EE087A17EE900AFCF76BF98A
:104450000FF03CF8FCF7AAF96BEE4C7A2AEE6B7A77
:10446000E9EE8A7A894BACEE2A7A43F8080F6AEEB5
:10447000E99AB0EE47CA27EEA77AEBEE8B9A1A9329
:10448000139BCDED017AACEE0C7A08EE100AA9EE82
:10449000A97AC3ED00DA17EE100AC8ED00CA89ED5B
:1044A000008A8AED90BACAED93AA8AED96AAFCF723
:1044B0003AF90FF00BF8FCF779F907EE900AF7EEEE
:1044C000006A86EEA77A7DAB1A4631462998DDED63
:1044D000017A69EE879A67EE87BA2CEE07CA6AEE10
:1044E000E96A2AEE4C7A6BEE6B7AEBEE8A6AA9EEF9
:1044F0008B7AECEE2A7ACAED8E6A8AED917ACAED51
:10450000947A8AED8FCACAED92BACAED959ACDED2A
:10451000236A8DED247ACDED257A03F0A3FC7DA8E6
:104520004BA9FFF707FC0A9FAAF5AE705346D3F8D4
:10453000AC23D3F8B013C3F8B823D3F8B423C3F82B
:10454000BC13C3F8C0230C3B9842F0D19DED027A16
:10455000DDED4B6ADFED4E5A3897F7EE007A87EEC5
:10456000876A44AC07F5AE7107F10C0538469DED3E
:104570004C7ADDED4D7A76EEA66A37EE077A77EE65
:10458000A77A66EE866A27EE067A67EE867A9FED50
:10459000416ACAED976A8AED987ACAED997AD0EDA8
:1045A000006A0346F0EE667A0C3393ED007A8B4294
:1045B00077EE877AF8D127EEA57A024676EEC76ABB
:1045C00066EEA66A0C32D2ED007A77EEC77A934295
:1045D000E7EEA76AF6D166EE866A0430A842E4ECFC
:1045E000016A01F10401DAD144980A97FCF79BF8BB
:1045F0000EF06CFFFCF7DAF806EE900A4598CDED68
:10460000446ACDED026AFCF78EF80EF05FFFFCF70E
:10461000CDF807EE900A4698CDED457ACDED017ABA
:10462000FCF781F80EF052FFFCF7C0F8DDED017ADF
:10463000DDED026A469067EEA77A07EE100AE6EE15
:10464000A67A0AF5727326930DF2EC48E7EE077A24
:104650000DF56A7B17EE900AFCF765F80EF036FF51
:10466000FCF7A4F80C4BCAF8C403F3EC017ACDF8BC
:10467000E0A6CDED367AD3ED007ACDED377A0A9A01
:1046800040460DF2A73101230CE000BFDC240020DE
:104690008988083DCB3D0D3DC42000203333333F96
:1046A000CDCC4C3F01F8013F013352F80C4B40F8A0
:1046B000044B1F2BF6D11E2201218FA8FBF7D4FD3E
:1046C00098ED007AD8ED017AB4EEE77A98ED027AA7
:1046D000D8ED037AF1EE10FA88BF4FF48173B4EE8F
:1046E000E77A98ED047AD8ED057A88BFABF8003008
:1046F000F1EE10FA88BF4FF44173B4EEE77A98ED0B
:10470000067AD8ED077A88BFABF80230F1EE10FADE
:1047100088BF40F20653B4EEE77A98ED087AD8EDF8
:10472000097A88BFABF80430F1EE10FA88BF4FF475
:10473000E163B4EEE77A98ED0A7AD8ED0B7A88BF98
:10474000ABF80630F1EE10FA88BF40F60A13B4EE6B
:10475000E77A98ED0C7AD8ED0D7A88BFABF808307F
:10476000F1EE10FA88BF40F60C33B4EEE77A98ED1C
:104770000E7AD8ED0F7A88BFABF80A30F1EE10FA56
:1047800088BF40F60E53B4EEE77A98ED107AD8ED74
:10479000117A88BFABF80C30F1EE10FA88BF4FF4F5
:1047A0007163B4EEE77A98ED127AD8ED137A88BF88
:1047B000ABF80E30F1EE10FA88BF41F21213B4EEEE
:1047C000E77A98ED147AD8ED157A88BFABF81030F7
:1047D000F1EE10FA88BF41F21433B4EEE77A88BFE5
:1047E000ABF81230F1EE10FA84BF41F21653ABF879
:1047F000143098ED167AD8ED177AB4EEE77A98ED82
:10480000187AD8ED197AF1EE10FA88BF41F21873D0
:10481000B4EEE77A98ED1A7AD8ED1B7A88BFABF838
:104820001630F1EE10FA88BF41F61A13B4EEE77AAB
:1048300098ED1C7AD8ED1D7A88BFABF81830F1EEF0
:1048400010FA88BF41F61C33B4EEE77A88BFABF8A4
:104850001A30F1EE10FA84BF41F61E53ABF81C304B
:104860000423069302230293029B03F10109B9F189
:104870001F0F4FEA4303049355D001230193019B7B
:10488000049AD7181F2FA8BF1F27A7EB030ABAF156
:10489000000F40DD1D464E46012408E001368FAB77
:1048A000BE421A5400F0A6810134A2452CDB05F16A
:1048B000FF3C711E1BF90C301BF9012008EB830E25
:1048C00008EB820050ED017A1EED017AB4EEE77A32
:1048D000F1EE10FA04F1FF30E0D801358FAAA945B6
:1048E0001354E1D18FABBE42A7EB060203EB0400E9
:1048F000594480F28E813C44A41B0134FBF797FCA1
:10490000A2454D463E46D2DA019B581E58445246B7
:104910008FA9FBF78CFC029B019703EB0709B9F108
:104920001E0FACDD049B0293069B013B06939BD1BB
:104930009BF90E209BF90F3008EB820208EB8303F2
:1049400052ED017A13ED017AF5EEC07AF1EE10FA2C
:10495000B5EEC07A4CBF01220022F1EE10FA4CBF36
:10496000012300239A4200F0568177EE877AF6EE13
:10497000006A67EEA67A0A9A269B04320A92129A75
:10498000E3EC017A934226937FF479AEDDF8E0A65A
:10499000DAEDF37ADAEDF26A9AEDF47A67EEA77A55
:1049A000E6EEA67AE7EE077A17EE900AFBF7BBFE73
:1049B0000EF08CFDFBF7FAFEB1EE007A2EEE076AE0
:1049C0006EEE876ACDEE867A1C9B02908CEEA66A0C
:1049D0002FEE077AC3ED007AC8EE076A1D9B1FED24
:1049E000D17A83ED006A77EE867A28EE078A05EEA3
:1049F000900AB6EE007A76EEA77AACEE878A1E9B16
:104A000025EE877AC3ED006A77EE277A179B1FEDB4
:104A1000DC6A83ED007AF5EE006A109B67EEA67AF9
:104A200028EE068AC3ED007A169B83ED008A9AF879
:104A3000CE38002B00F09E820AF6C80304930AF5D4
:104A40000C630AF6C40901930AF6BC070AF6B80615
:104A50001C4699ED007A049B8DED127A83ED007A65
:104A6000DAE90A01FBF7A2FE94ED006A049089EDF1
:104A7000006ADAE908018DED0A6AFBF797FED7EDC7
:104A8000007A0190C4ED007ADAE90601CDED067AEC
:104A9000FBF78CFEDDED067A9DED0A6AD6ED006A25
:104AA00007EE100A67EE277A9DED017AC7ED006ADE
:104AB000E7EE067ADAE90401CDED066ACDED017A7A
:104AC000FBF774FEDDED017ADDED066A07EE100AF4
:104AD000E6EE877ADAE902019DED127ADDED046AED
:104AE00086ED008AE6EE877ACDED017AFBF75EFE71
:104AF000DDED017A1B9907EE100AE8EE077A002235
:104B00000023C1ED007A0DF5D761D1E90001B0EEC7
:104B1000678AFBF743FD002840F04A830DF5D76113
:104B200000224E4BD1E90001FBF7A4FD002800F064
:104B30008482DDEDB67AB4EEE78AF1EE10FA02F384
:104B4000C083DDEDC37A9DEDD07A0E9BB4EEC87ABA
:104B5000F1EE10FAC3ED007A42F1BF839DEDDC7AED
:104B6000B4EEC87AF1EE10FA40F31A830D20022455
:104B700001216FF040460B185B089A190DF5C665C8
:104B800005EB8205A5F53C750EE0CA1818469C4257
:104B90004FEA520303EB06020DF5C66505EB8205ED
:104BA000A5F53C7583F00B8195ED007AB4EEC78ACC
:104BB000F1EE10FAE9DB5C1CA0421946DBD892004A
:104BC0009B00D0A988181944D0ED006A91ED007AB5
:104BD00078EE665A37EE667ADDA985EE876A0A4472
:104BE0000B4492ED007AD3ED006A76EEC76AA6EE2A
:104BF000267AD7E2A945A9EB050203EB04000BEBEB
:104C00000C017FF751AE4C44641BFBF710FB4D4683
:104C10004AE64D4648E6DDED366AF4EE667AF1EE98
:104C200010FA3FF4A2AE9DED376AF4EE467AF1EE4B
:104C300010FA3FF49AAEB4EE667AF1EE10FA3FF451
:104C400094AEB4EE467AF1EE10FA3FF48EAE37EE43
:104C5000677AF6EE006AE7EE267A8CE60000F03F0F
:104C60000DF5D76090ED007B47AE01214FF48072C7
:104C700000258AED0E7BCAF844408AF8CD18AAF8C0
:104C800030202146CAE91244CAE91544CAF85C40FA
:104C90003022CAED18CACAED14CACAED10CA0AF108
:104CA000640035607560B560F5600996FBF7DCFA65
:104CB000AE4BCAF894502146CAF89850CAF89C5096
:104CC000CAF8AC304FF4A272CAED2CCACAED2DCA94
:104CD0000AF1B800FBF7C8FA0024A54BCAF8B830AF
:104CE0004FF07E5B4FF001302146CAF8E030CAF841
:104CF0000831CAF83031CAF85831CAF88031CAF8D8
:104D0000A831CAF8D031CAF8F831CAF8FC01CAF89B
:104D10000002CAF804024FF4B472CAF81842CAF882
:104D20001C42CAF82042CAF82842CAF82C42CAF8E3
:104D30003042CAF83C42CAF834B2CAF824B2CAF8BF
:104D400014B2CAF84042CAF84442CAF84C42CAF8FF
:104D50005042CAF85442CAF858B2CAF848B2CAF81F
:104D600038B20A98FBF780FA0AF2244ECDF870E0C8
:104D70000AF5856ECDF874E00AF22C4ECDF878E095
:104D80000AF5866ECDF85CE00AF2344ECDF840E0CC
:104D90000AF5876ECDF87CE00AF23C4E0AF5757391
:104DA000CDF844E00AF5886E1293CDF834E00AF2AB
:104DB000444E129FCDF838E00AF204400AF58265AD
:104DC0000AF5896E0026139014950AF214400AF52C
:104DD00083650AF21C4CCDF860E00AF24C4ECAF82A
:104DE000D443CAF8C463CAF8C863CAF8CC63CAF823
:104DF000D06315907C60BC601695CDF86CC0CDF882
:104E00003CE0CAF8E043CAF8E443CAF8E843CAF809
:104E1000EC43CAF8F043CAF8F443CAF8F843CAF8B6
:104E2000FC43139BCAF800440AF581681E600AF22D
:104E30000C49149BC8F80060C9F800601E60159BFF
:104E40001D9F1E60169B1E601B9B0AF584601E60E2
:104E50001C9B4FF0804CC0F800C01E601E9B3E6043
:104E60001E60179B109F1E601F9B3E601E60119B63
:104E70000D9FC3F800B00E9B87ED008A1E60189B43
:104E80000F9FC3F800B03225279B3E60CAF85044FC
:104E9000CAF85444CAF85C44CAF8585493E8070066
:104EA00074AB83E807000B9AD3F800B0D3F804E0A2
:104EB000D3F808C007CA77AC84E80700089A07CA85
:104EC0007AAC84E80700DE68199F1D695C699869FF
:104ED000D9691A6ACDF810903B46C14607F5876735
:104EE000DDF828803597C3F800B0C3F804E0C3F8B4
:104EF00008C0DE601D615C619861D9611A6224336B
:104F0000BB42F0D1DDF8C036CDF828801A689DED9F
:104F100040CADDED3FBADDED3E9A9DED41BADDEDD3
:104F200042AA9DED43AA0AF698034FF47A711A60DB
:104F3000DDF8C0365A680AF69C03C8461A60DDF8E8
:104F4000C036DDF8109098680AF50A6200231060F8
:104F50008AF8A438CAF8A6388AF8AD388AF8AE3884
:104F6000CAF8B038AAF8AA18FFF7F8B86666663F1C
:104F70000000A0409AED027B0AF50C621446012362
:104F80000AF6B8060AF6BC07DAE904018AF8CE3850
:104F9000019286ED008ADAE9062387ED008A84ED26
:104FA000008A8DED067B0AF6C409FBF76FF90AF655
:104FB000C8031C46049389ED008ADAE90823FBF74D
:104FC00065F9DAE90A2384ED008AFBF75FF9DDE988
:104FD0000623FBF75BF902460B4600207349FBF7FB
:104FE0006EFA04460D4602460B46DAE90201FBF76B
:104FF000F4F922462B46CAE90201DAE90401FBF77B
:10500000ECF922462B46CAE90401DAE90601FBF76E
:10501000E4F922462B46CAE90601DAE90801FBF762
:10502000DCF92246CAE908012B46DAE90A01FBF756
:10503000D4F9019CCAE90A010BE5DDEDD15A9DEDD9
:10504000B86ADDEDD27ADDEDB94A9DEDD35ADDEDDA
:10505000B66A9DEDD07A9DEDB74A65EEA85A26EE68
:10506000286A67EEA87ACDEDD15A8DEDB86ADDEDEC
:10507000BA5A9DEDD46ACDEDD27ADDEDBB7A64EEFD
:10508000A84A25EE285A65EEA85A26EE286A67EE49
:10509000A87ACDEDB94A8DEDD35ADDEDD54A9DED17
:1050A000BC5ACDEDBA5A8DEDD46ADDEDD65A9DEDE0
:1050B000BD6ACDEDBB7ADDEDD77A68EEA66A24EE47
:1050C000284A64EEA84A25EE285A65EEA85A26EE2C
:1050D000286A67EEA87A28EE877ACDEDD54A8DED5D
:1050E000BC5ACDEDD65A8DEDBD6ACDEDD77ACDED5A
:1050F000B66A8DEDD07A8DEDB74A9DEDBE4ADDEDF5
:10510000D85A9DEDBF6ADDEDD97ADDEDC04A9DED3F
:10511000DA5A65EEA85A26EE286A67EEA87A64EE97
:10512000A84ACDEDD85A8DEDBF6ADDEDC15A9DED8F
:10513000DB6ACDEDD97ACDEDC04ADDEDC27ADDED89
:10514000DC4A24EE284A25EE285A65EEA85A26EEB7
:10515000286A68EEA77AB4EEE68A68EEA48AF1EED1
:1051600010FA8DEDBE4A8DEDDA5ACDEDC15A8DEDB6
:10517000DB6ACDEDC27ACDEDDC8A02F39880DDEDFD
:10518000C37A0E9BB4EEC78AF1EE10FAC3ED007A33
:1051900042F3A380F4EEC88AF1EE10FA02F37184B0
:1051A0009DEDE97A0F9B83ED007A09E00000F03F66
:1051B0000E9BF7EE007AC3ED007A0F9BC3ED007AE9
:1051C000D14B9AED2D7AD3ED008A189BDFF84C93E2
:1051D000C3ED007A78EEC77AF0EEE77A17EE900A20
:1051E000FBF7A1FA0DF0F8FAFBF77EFADDF8D436FA
:1051F00018709AED2D7ADAED2B7A1F9B38EEC77A6C
:105200007DEE677AB0EEC77AF0EEE77A77EE877ACE
:1052100089ED007AC3ED007A17EE900ACDED017AA0
:10522000FBF781FAB6A3D3E90023FBF708FA0028BD
:1052300001F0AE829FEDB57ADDED017A77EEC77AA7
:10524000B0EE087A67EE877AB1EE007AF4EEC77AAC
:10525000F1EE10FA01F3AF86B7EE007A77EE877AB7
:1052600017EE900AFBF75FFA04460D46F7EE007A58
:1052700078EEE77AF0EEE77A17EE900AFBF753FA4A
:105280000022A34BFBF7A3F822462B4606460F4607
:10529000FBF7BAF908B926462F4630463946FBF7E0
:1052A00085FA119B18609AF831300AF1400001909C
:1052B0007BB19AF8303063B9109BF6EE007A6FEE4E
:1052C000A77A93ED007AB4EEE77AF1EE10FA01F1E5
:1052D0009B87099BD3ED007AF5EE407AF1EE10FA48
:1052E0004FF000040FD1D3ED017AF5EE407AF1EEE4
:1052F00010FA194607D1D3ED027AF5EE407AF1EEB5
:1053000010FA01F02A870DF5D66100220023D1E9B9
:105310000001FBF7AFF9002844D1109B7FEEAFFAF4
:10532000D3ED007AF4EEEF7AF1EE10FA3AD5DDED36
:10533000237A0999CAED107ADDED247A8AED12BA42
:10534000CAED137ADDED257ACAED15AA8AED18AA01
:105350008AED11CACAED14BACAED179ACAED167AC7
:105360000198FEF7E7FCDDF8DC16002301220A7045
:105370008AED2BDACAED2D8ACAF8B830CAF8BC30EB
:10538000CAF8C030CAF8DC30CAF8E030CAF8E430F5
:10539000CAF80031CAF80431CAF80831CAF8A8318D
:1053A000CAF8F8310023CAF89430CAF89830CAF81D
:1053B0009C300199099802F013FFDAED2B9AF7EE71
:1053C000007AE9EEE97A17EE900AFBF7ACF90EF0F5
:1053D0007DF8FBF7EBF99AED123ADAED107ADAED97
:1053E000155ADAED182ADAED134A9AED165ADDED60
:1053F000573A9DED584A8AED22DA06EE100A29EE58
:10540000837A69EEA56AA6EE277A69EEA27AE6EEBD
:10541000246AE6EE057A73EEC73A9DED5B5ADDED40
:10542000594A8AED827A35EE655A9DED5A6ADDED6C
:105430005C5ACAED193A9AED2C7ADFED363A8AEDCC
:10544000239A34EE664A74EEE74A75EEE25A36EE77
:10545000436AB4EEE37AF1EE10FACAED248ACAED9B
:10546000836A8AED1A4ACAED847ACAED1B4A8AED2C
:105470001D5ACAED1E5A8AED1C6A41F14781DFEDC3
:10548000267AB4EEE77AF1EE10FA41F33F8179EE35
:10549000477A149BF0EEE77AC3ED007A7CEEA77AA8
:1054A0009DED987A159BF4EEC77AF1EE10FAC3EDF4
:1054B000007A41F367819DEDA17AF4EEC77AF1EEAF
:1054C00010FA02F13D81DDEDAB8A9DEDB59A179B97
:1054D0009DED5D7AD3ED007AF4EEC77AF1EE10FA25
:1054E00041F36D859DED637AF4EEC77AF1EE10FA23
:1054F00042F150810720022401216FF0404521E054
:105500009A9999999999B93FD8240020CDCCCC3D4E
:105510000000E03F9A99993FCDCC4C3FE824002011
:10552000000000008988083D000048420AD7233C5B
:1055300093ED007AF4EEC77AF1EE10FAB8BF104698
:1055400082F2FA804218520853190DF5C66606EB2E
:105550008303A042A3F2BC43EAD801F18043013B9C
:105560009B0089005DAAD0180A44D0ED006A92ED34
:10557000007A77EEE67A37EE667A64AAC7EE876A33
:1055800013441144D3ED009AD1ED007A77EEE97A15
:10559000E6EEA79A199D389B5FED1F7A359ACAED02
:1055A000F57A2E46F0EE676AB0EE676AF0EE675A5B
:1055B000CAEDF67ACAEDF77A95ED067AD3ED007A60
:1055C00077EE677A243575EEA75A0C33CAEDF55A93
:1055D00015ED027A53ED027A77EE677A36EE276A96
:1055E0008AEDF66A15ED017A53ED017A77EE677A66
:1055F000AA4276EEA76ACAEDF76ADDD15FED377A87
:10560000119865EEA75A26EE276A66EEA76ACAEDDC
:10561000F55A8AEDF66ACAEDF76A0AF505631A6863
:1056200059685A629A689962DA62D9681A69196384
:105630005A6359699A699963DA63D9691A6A19646C
:105640005A64243B9842EAD1279A199913680B604F
:105650000B992B980B6803600898209C03682360C3
:105660003A9C536823602C9C4B682360219C4368C0
:10567000236093683B9A13603C9A8B681360229A6C
:10568000836813600C9B022B01F08C80B4EEEDEA72
:10569000F1EE10FA01F35E810C9B002B41F0348691
:1056A000DAF8A420DAF8A830CAF880209AF8302076
:1056B000DAF8A010CAF884300023CAF87C10AAF8DF
:1056C00002328AF80432CAF85C34002A01F05080B1
:1056D0008AF8303086AC5FED6C7AB4EEE79AF1EE82
:1056E00010FAC1F21E800023AAF802328AF80432AE
:1056F000CAF85834DDF898360E9993ED085AD3ED70
:10570000063A93ED074AD3ED004AD3ED015A93EDE3
:10571000022AD3ED036A93ED047AD3ED097AD3ED2F
:10572000052ADDF898261FED7F3A24EE094A63EE3C
:10573000893A25EE099A83ED074AC3ED063A83EDCF
:10574000089A119B91ED006A93ED004A24EE064AF7
:10575000B7EE005A64EE844A38EE855AC2ED004A2C
:10576000D3ED004A91ED006A64EE864A0A4665EE82
:10577000A45ADDF89816B0EE006AC1ED015AD3EDD7
:10578000005A0F9BC6EE054A92ED006A26EE256A86
:1057900077EEA77A22EE066A67EEA87A81ED026AB2
:1057A00093ED006A66EE866AF4EEC34AC1ED036AC1
:1057B000D3ED006A27EE267AF1EE10FA81ED047A35
:1057C00093ED007AC1ED097A62EE877ADDF89C36B6
:1057D000C1ED057AD3ED067AB8BFF0EE434A67EE25
:1057E000A47AC3ED067AD1ED0A7ADDF89C3677EE1D
:1057F000A77A67EEA87AC1ED0A7AD3ED077A67EE49
:10580000A47AC3ED077A189BD1ED0B7A93ED007A59
:10581000289B67EE877AC1ED0B7ACBB3D1ED037A83
:10582000DDF89C3667EEA87AC1ED037AD3ED007AF5
:1058300067EEA47AC3ED007AD1ED047ADDF89C36E8
:1058400067EEA87AC1ED047AD3ED017A67EEA47A07
:10585000C3ED017AD1ED057ADDF89C3667EEA87AC2
:10586000C1ED057AD3ED027A67EEA47AC3ED027A30
:10587000D1ED0A7ADDF89C3677EEA77A67EEA88A32
:10588000C1ED0A8AD3ED077A67EEA47AC3ED077AF1
:10589000DDF89C369AED2E3AD3ED002ADDF89C26F1
:1058A000DAED383A9AED424ADAED4C4A9AED565A18
:1058B000DAED605A9AED6A6ADAED746A9DED592A5A
:1058C000DDED587A9AED7E7AC4ED067AA2EEA23A20
:1058D00000232360F1EE422A8AED2E3A92ED013A3E
:1058E000C4ED032AE3EE033AF1EE677ACAED383AE3
:1058F000D2ED023AA3EEA34A8AED424A92ED034A60
:10590000E4EE044ACAED4C4AD2ED044AA4EEA45A8D
:105910008AED565A92ED055AE5EE055ACAED605ADF
:10592000D2ED065AA5EEA56A8AED6A6A92ED076A7B
:10593000E6EE066ACAED746AD2ED086ADDF8A826BA
:10594000DDED575A9DED5C6AC4ED027AA6EEA67AAB
:1059500023612362DDED5B6A8AED7E7A12788AF834
:10596000FC21DDF8A8269DED5A7A12788AF8FD21EF
:10597000DDF8A8268F9312788AF8FE21DDF8A82694
:10598000939352788AF8FF21DDF8A82697935278EE
:105990008AF80022DDF8A82684ED012A52788AF8D8
:1059A0000122B1EE654AC4ED055A84ED074A289BF1
:1059B0008DED906AF1EE464AB1EE665AF1EE477A05
:1059C000CDED924ACDED956A8DED915A8DED947A9B
:1059D000CDED967AABB1DDF8A8365B788BB1159B2F
:1059E00093ED007AF7EE007AB4EEE77AF1EE10FA72
:1059F000D4BF012300238AF8FF318AF800328AF8E5
:105A000001320D9BD3ED007AF4EEC87AF1EE10FA74
:105A1000C0F2B1860DF5D763D3E90001002200235F
:105A2000FAF70DFE002800F0A6860023AAF8FC3144
:105A30008AF8FE318AF805328AF80732DAED247ADC
:105A4000B0EE087AF4EEC77AF1EE10FA06DC9FEDBC
:105A5000597AF4EEC77AF1EE10FA08D50023AAF8C5
:105A6000FC318AF8FE318AF805328AF80732B7EE3F
:105A7000007A77EEC77AF0EEE77A17EE900AFAF737
:105A800052FEDDF89836064618680F46FAF74BFEC8
:105A900002460B4630463946CDE90223FAF7B4FDFB
:105AA00008B9DDE9026730463946FAF77FFEDDF8CE
:105AB0009836186058609860DAED237AB0EE007A74
:105AC000F4EEC77AF1EE10FA00F313869FED3A7AFE
:105AD000F4EEC77AF1EE10FA00F10B86B7EE008A09
